:0400000046EF00F0D7
:100008004C82FACF05F0FBCF06F0E9CF07F0EACF34
:1000180008F0E1CF09F0E2CF0AF0D9CF0BF0DACF40
:100028000CF0F3CF0DF0F4CF0EF0F6CF0FF0F7CFC2
:1000380010F0F8CF11F0F5CF12F00E01C6A304D0DE
:100048000E01CEB33BEC25F012C0F5FF11C0F8FF4E
:1000580010C0F7FF0FC0F6FF0EC0F4FF0DC0F3FF8E
:100068000CC0DAFF0BC0D9FF0AC0E2FF09C0E1FFEC
:1000780008C0EAFF07C0E9FF06C0FBFF05C0FAFF9A
:080088004C92110070EF23F00F
:100F000000010000000A00000064000000E8030087
:100F10000010270000A086010040420F0080969834
:100F20000000E1F50500CA9A3B00803F0020410027
:100F3000C842007A44401C4650C34724744997185D
:100F40004BBCBE4C6B6E4E03155079AD60F34971CE
:100F500000803FCDCC3DD7233C12833AB7D138C671
:100F60002737388635C0D633CC2B32708930E7DB53
:100F70002EE53C1E42A20D3C04429F6A4290014273
:100F80004DBB40EC473E8E1FBB3C04425A8B420493
:100F900044429C4F4100803F6B703A20252E3266C0
:100FA0002020206B643A20252E32662020206B6999
:100FB0003A20252E33662020207468726F74746C7A
:100FC000653A202569200A0D0000840E0001986F03
:100FD000000E0001996F69EF0CF0250E0001AB19AE
:100FE000D8B406D00001AB513DEC26F069EF0CF00F
:100FF000000E00019B6F000E9A6F82C0F6FF83C047
:10100000F7FF000EF86E0800F5502E0AD8A438D06D
:1010100000019B8D0001824B832B000E0001A76F06
:10102000000EA66F20D0A6C021F0A7C022F0000EAF
:10103000246E0A0E236E28EC25F082C0F6FF83C0D2
:10104000F7FF000EF86E0800F5502126000E222250
:10105000D00E21240001A66FFF0E22200001A76FF1
:101060000001824B832B82C0F6FF83C0F7FF000E86
:10107000F86E0800F550A0EC25F0D8A00CD0D3D71E
:10108000000E0001A76F000EA66F00019B8903D020
:1010900000019B851BD082C0F6FF83C0F7FF0001D3
:1010A000824B832B000EF86E0800F5CFABF00001E9
:1010B000AB51000AD8B41200640AD8B407D0020AAF
:1010C000D8B4E6D70F0AD8A469EF0CF0070E0001D8
:1010D0009B15D8B40FD300019BA905D0000E0001C9
:1010E000A76F060EA66F98C0D9FF99C0DAFFDECFB2
:1010F000A8F0DECFA9F0DDCFAAF0030E00019827FB
:10110000000E99230001AAAF11D0A8C036F0A9C0E3
:1011100037F0AAC038F04EEC25F036C0A8F037C042
:10112000A9F038C0AAF0030E00019A13000E0001C6
:101130009D6F000E9C6F0001A8510001A9110001D4
:10114000AA11D8B499D0820E00018F6FFF0E000152
:10115000906FA8C091F0A9C092F0AAC093F0ABC064
:1011600094F0100E06D00001D8909433933392334C
:101170009133E82EF8D70001915100018F2500012D
:101180009C6F000E0001902100019D6F00019C07E3
:10119000D8A09D079CC021F09DC022F0000E246EB7
:1011A000030E236E28EC25F021C09CF022C09DF098
:1011B0009CC019F09DC01AF0000E1C6E0A0E1B6E2A
:1011C00054EC22F019C09CF01AC09DF000019DAFB4
:1011D00004D000019C07D8A09D0700019C51000885
:1011E0007BEC0CF036C09EF037C09FF038C0A0F00A
:1011F0009EC027F09FC028F0A0C029F0A8C02AF008
:10120000A9C02BF0AAC02CF049EC1FF027C09EF01B
:1012100028C09FF029C0A0F09EC063F09FC064F07A
:10122000A0C065F0000E0001666F800E0001676FC0
:101230003F0E0001686FB0EC20F00001D8B005D07F
:1012400000019C07D8A09D0717D09EC063F09FC0E7
:1012500064F0A0C065F0000E0001666F200E000172
:10126000676F410E0001686FB0EC20F00001D8A05C
:1012700003D000019C4B9D2B0001A7BF08D00001AB
:10128000A7511DE10D0E0001A65DD8B018D0A8C071
:1012900067F0A9C068F0AAC069F00001A651CAECC5
:1012A00014F036C06AF037C06BF038C06CF003EC55
:1012B00016F067C0A8F068C0A9F069C0AAF00001E4
:1012C0009DBF08D000019D512AE10A0E00019C5DDE
:1012D000D8B025D00001A8510001A9110001AA1120
:1012E000D8B463D0A8C073F0A9C074F0AAC075F0D8
:1012F00051EC1BF0000173510001741100017511D4
:1013000000017611D8A451D000019DBF4ED000013C
:101310009D5105E1020E00019C5DD8A046D09EC003
:1013200063F09FC064F0A0C065F0700E0001666FAE
:10133000890E0001676F400E0001686FB0EC20F06D
:101340000001D8B003D00001F70E02D00001F80E62
:101350009C27FF0E9D2300019C517BEC0CF036C0B6
:101360009EF037C09FF038C0A0F0A8C013F0A9C00D
:1013700014F0AAC015F09EC016F09FC017F0A0C0D0
:1013800018F0F3EC1BF013C0A2F014C0A3F015C0CA
:10139000A4F016C0A5F0000E0001A86F000E000119
:1013A000A96F000E0001AA6F33D0A8C073F0A9C0C6
:1013B00074F0AAC075F051EC1BF073C0A2F074C0B9
:1013C000A3F075C0A4F076C0A5F0A8C073F0A9C0C2
:1013D00074F0AAC075F0A2C01BF0A3C01CF0A4C09A
:1013E0001DF0A5C01EF042EC23F01BC076F01CC01F
:1013F00077F01DC078F099EC23F073C0A8F074C0AA
:10140000A9F075C0AAF0000E00019D6F000E9C6F40
:10141000010E0001AB6F0A0E0001AB19D8B421D048
:101420000001AB51040D010EF324F66E0F0EF420F3
:10143000F76EF86A000EF8220900F5500001A25D6F
:101440000900F5500001A3590900F5500001A45905
:101450000900F5500001A559D8A003D00001AB2B1D
:10146000DAD7030E00019A1500018F6F000E0001FC
:101470009B150001906F00018F5100019011D8B4AD
:101480004DD02D0E3DEC26F049D0A2C013F0A3C0E4
:1014900014F0A4C015F0A5C016F00001AB51040D66
:1014A000010EF324F66E0F0EF420F76EF86A000EAC
:1014B000F8220900F5CF17F00900F5CF18F0090060
:1014C000F5CF19F00A00F5CF1AF096EC22F013C010
:1014D0009EF014C09FF015C0A0F016C0A1F09EC0F1
:1014E00020F09FC021F0A0C022F0A1C023F00A0E7E
:1014F000246E000E256E000E266E000E276E0FEC79
:1015000023F020C09EF021C09FF022C0A0F023C095
:10151000A1F000019E51300F3DEC26F00001AB0719
:101520000001AB29D8B408D0B0D7300E3DEC26F07E
:1015300000019C07D8A09D0700019DBF07D00001B6
:101540009D51F3E100019C05D8B0EFD70001A7BF82
:101550000CD00001A75105E1090E0001A65DD8A03D
:1015600004D0080E0001AB6F02D0A6C0ABF00001A2
:10157000AB510001A65F000E0001ABBFFF0E0001E2
:10158000A75B0001AB510001D8B403D02E0E3DEC97
:1015900026F00001AB517BEC0CF036C095F037C063
:1015A00096F038C097F0A8C02AF0A9C02BF0AAC0C6
:1015B0002CF095C027F096C028F097C029F049EC90
:1015C0001FF027C073F028C074F029C075F051ECEB
:1015D0001BF073C0A2F074C0A3F075C0A4F076C075
:1015E000A5F073D0A2C013F0A3C014F0A4C015F0EE
:1015F000A5C016F00001AB51040D010EF324F66EE8
:101600000F0EF420F76EF86A000EF8220900F5CFED
:1016100017F00900F5CF18F00900F5CF19F00A000E
:10162000F5CF1AF096EC22F013C09EF014C09FF094
:1016300015C0A0F016C0A1F09EC020F09FC021F000
:10164000A0C022F0A1C023F00A0E246E000E256E69
:10165000000E266E000E276E0FEC23F020C09EF0C9
:1016600021C09FF022C0A0F023C0A1F000019E5134
:10167000300F3DEC26F0A2C020F0A3C021F0A4C0A2
:1016800022F0A5C023F00001AB51040D010EF3249C
:10169000F66E0F0EF420F76EF86A000EF8220900BD
:1016A000F5CF24F00900F5CF25F00900F5CF26F09D
:1016B0000A00F5CF27F00FEC23F020C0A2F021C0E4
:1016C000A3F022C0A4F023C0A5F00001AB070001E5
:1016D000AB29D8B408D086D7300E3DEC26F00001F7
:1016E000A607D8A0A7070001A6510001A711D8B4EA
:1016F000F0D0F2D798C0D9FF99C0DAFFDECFA2F0C0
:10170000DDCFA3F00001000EA3BFFF0EA46FA56FF5
:10171000020E00019827000E99230001A5AF0CD0FE
:10172000030E00019A130001A51FA41FA31FA26DA1
:10173000000EA323A423A5230001A6510001A71195
:10174000D8A40DD00001A2510001A3110001A411E1
:101750000001A511D8A403D00001A64BA72B010EB0
:101760000001AB6F0A0E0001AB19D8B421D0000103
:10177000AB51040D010EF324F66E0F0EF420F76E3C
:10178000F86A000EF8220900F5500001A25D090078
:10179000F5500001A3590900F5500001A4590900B2
:1017A000F5500001A559D8A003D00001AB2BDAD722
:1017B000800E0001ABBF7F0E00018F6F0001A651AC
:1017C0000001AB5D0001A751800A00018F59D8B01C
:1017D00003D0A6C0ABF018D00001A751800A0001C9
:1017E0008F6F0001AB510001A65D800E0001ABBF01
:1017F0007F0E00018F59D8B007D00001AB51000116
:10180000A66FA76BA6BFA707030E00019A150001DC
:101810008F6F000E00019B150001906F00018F512A
:1018200000019011D8B44AD02D0E3DEC26F046D0E0
:10183000A6C08FF0A7C090F00001D8908F379037E6
:101840000001D8908F379037010E00018F25F66E7A
:101850000F0E9021F76EF86A000EF8220900F5CFFE
:1018600017F00900F5CF18F00900F5CF19F00A00BC
:10187000F5CF1AF0A2C013F0A3C014F0A4C015F065
:10188000A5C016F096EC22F013C020F014C021F091
:1018900015C022F016C023F00A0E246E000E256E2D
:1018A000000E266E000E276E0FEC23F02050300F36
:1018B0000001AB6F0001AB513DEC26F00001A60723
:1018C000D8A0A7070001A629B3E10001A729D8A441
:1018D000AFD782C0F6FF83C0F7FF0001824B832B96
:1018E000000EF86E0800F5CFABF00001AB51D8B494
:1018F0001200EDEF07F00001636F000163AF16D136
:101900000001636D00016351800A120FD8A09DD0C1
:10191000000E246E030E236E000E1C6E0A0E1B6E4C
:10192000000E166E640E156E00016351136E146A7C
:1019300013BE1406D7EC22F013C019F014C01AF02D
:1019400054EC22F0090E1924216E000E1A20226E8A
:1019500028EC25F0500E2124F66E0F0E2220F76E93
:10196000F86A000EF8220900F5CF2AF00900F5CF39
:101970002BF00A00F5CF2CF0000E1C6E640E1B6ECF
:1019800000016351196E1A6A19BE1A0654EC22F04E
:10199000120E1924216E000E1A20226E000E246EE3
:1019A000030E236E28EC25F0500E2124F66E0F0E48
:1019B0002220F76EF86A000EF8220900F5CF27F012
:1019C0000900F5CF28F00A00F5CF29F049EC1FF007
:1019D00027C060F028C061F029C062F060C027F025
:1019E00061C028F062C029F0000E246E030E236E41
:1019F000000E166E0A0E156E00016351136E146A06
:101A000013BE1406D7EC22F013C021F014C022F04C
:101A100028EC25F0500E2124F66E0F0E2220F76ED2
:101A2000F86A000EF8220900F5CF2AF00900F5CF78
:101A30002BF00A00F5CF2CF049EC1FF027C036F050
:101A400028C037F029C038F0120000016351800A25
:101A5000750FD8A055D0000E1C6E0A0E1B6E00012B
:101A60006351196E1A6A19BE1A0654EC22F0090E57
:101A70001924216E000E1A20226E000E246E030E11
:101A8000236E28EC25F0500E2124F66E0F0E222036
:101A9000F76EF86A000EF8220900F5CF27F009006A
:101AA000F5CF28F00A00F5CF29F0000E246E030EC2
:101AB000236E000E166E0A0E156E00016351136E32
:101AC000146A13BE1406D7EC22F013C021F014C020
:101AD00022F028EC25F0500E2124F66E0F0E222065
:101AE000F76EF86A000EF8220900F5CF2AF0090017
:101AF000F5CF2BF00A00F5CF2CF049EC1FF09ED764
:101B000000016351030D500EF324F66E0F0EF42006
:101B1000F76EF86A000EF8220900F5CF36F00900DA
:101B2000F5CF37F00A00F5CF38F01200000163510D
:101B3000800A120FD8A09DD0000E246E030E236ED3
:101B4000000E1C6E0A0E1B6E000E166E640E156ED5
:101B500000016351136E146A13BE1406D7EC22F011
:101B600013C019F014C01AF054EC22F0090E192415
:101B7000216E000E1A20226E28EC25F0290E212459
:101B8000F66E0F0E2220F76EF86A000EF82209009A
:101B9000F5CF2AF00900F5CF2BF00A00F5CF2CF095
:101BA000000E1C6E640E1B6E00016351196E1A6AE2
:101BB00019BE1A0654EC22F0120E1924216E000EE2
:101BC0001A20226E000E246E030E236E28EC25F0E0
:101BD000290E2124F66E0F0E2220F76EF86A000EF1
:101BE000F8220900F5CF27F00900F5CF28F00A0008
:101BF000F5CF29F049EC1FF027C060F028C061F054
:101C000029C062F060C027F061C028F062C029F0EE
:101C1000000E246E030E236E000E166E0A0E156E55
:101C200000016351136E146A13BE1406D7EC22F040
:101C300013C021F014C022F028EC25F0290E212435
:101C4000F66E0F0E2220F76EF86A000EF8220900D9
:101C5000F5CF2AF00900F5CF2BF00A00F5CF2CF0D4
:101C600049EC1FF027C036F028C037F029C038F003
:101C7000120000016351800A750FD8A055D0000EE4
:101C80001C6E0A0E1B6E00016351196E1A6A19BE92
:101C90001A0654EC22F0090E1924216E000E1A20A7
:101CA000226E000E246E030E236E28EC25F0290E02
:101CB0002124F66E0F0E2220F76EF86A000EF8222D
:101CC0000900F5CF27F00900F5CF28F00A00F5CF7D
:101CD00029F0000E246E030E236E000E166E0A0EFF
:101CE000156E00016351136E146A13BE1406D7EC0F
:101CF00022F013C021F014C022F028EC25F0290EA8
:101D00002124F66E0F0E2220F76EF86A000EF822DC
:101D10000900F5CF2AF00900F5CF2BF00A00F5CF26
:101D20002CF049EC1FF09ED700016351030D290EE2
:101D3000F324F66E0F0EF420F76EF86A000EF82208
:101D40000900F5CF36F00900F5CF37F00A00F5CFDE
:101D500038F01200000E0101A96F000EA86FFDEC13
:101D600023F0CFEC24F04DEC26F033EC26F042ECDF
:101D70001EF031EC19F0000E0001F76F000E0001AB
:101D8000F86F000E0001F96F000E0001F46F000EF5
:101D90000001F56F000E0001F66F06D038EC26F05A
:101DA000C3EC1FF0F8EC11F00001ED51D8B4F6D7F8
:101DB000330E0001F76F730E0001F86F3F0E000144
:101DC000F96FB80E0001F46F7E0E0001F56F3F0E43
:101DD0000001F66F38EC26F0C3EC1FF0F8EC11F0C0
:101DE000660E00018E6FB60E00018F6FC00E0001EF
:101DF000906F000E0001916F000E0001926F000EB7
:101E00000001936F000E0001946F000E0001956FAA
:101E1000000E0001966FB3EC1DF00E01CDABDFD0CC
:101E200008EC26F00101A76F9FD0D7C067F0D8C09B
:101E300068F0D9C069F0D70E00016A6F230E000167
:101E40006B6F3C0E00016C6F03EC16F067C0D7F0AF
:101E500068C0D8F069C0D9F0A4D0D7C073F0D8C09A
:101E600074F0D9C075F0D70E0001766F230E000113
:101E7000776F3C0E0001786F99EC23F073C0D7F0B8
:101E800074C0D8F075C0D9F08CD0D1C067F0D2C082
:101E900068F0D3C069F0CD0E00016A6F4C0E0001EE
:101EA0006B6F3D0E00016C6F03EC16F067C0D1F054
:101EB00068C0D2F069C0D3F074D0D1C073F0D2C082
:101EC00074F0D3C075F0CD0E0001766F4C0E00019A
:101ED000776F3D0E0001786F99EC23F073C0D1F05D
:101EE00074C0D2F075C0D3F05CD0D4C067F0D5C058
:101EF00068F0D6C069F0120E00016A6F830E00010F
:101F00006B6F3A0E00016C6F03EC16F067C0D4F0F3
:101F100068C0D5F069C0D6F044D0D4C073F0D5C045
:101F200074F0D6C075F0120E0001766F830E0001BA
:101F3000776F3A0E0001786F99EC23F073C0D4F0FC
:101F400074C0D5F075C0D6F02CD0020E0001DC278D
:101F5000000E04D00001FE0EDC27FF0EDD2321D091
:101F6000010E0101A81B1DD00101A751610AD8B4BF
:101F700074D7050AD8B4D1D7010AD8B4B6D7020AA3
:101F8000D8B4E8D7160AD8B450D7020AD8B495D72F
:101F9000070AD8B4DAD7030AD8B477D70D0AD8B469
:101FA000DFD7980E0001826F0F0E0001836FD7C03C
:101FB00084F0D8C085F0D9C086F0D1C087F0D2C0F7
:101FC00088F0D3C089F0D4C08AF0D5C08BF0D6C0D9
:101FD0008CF0DCC08DF0DDC08EF0E5EC07F0010187
:101FE000A8510101A911D8B4F5D6B6C027F0B7C0E1
:101FF00028F0B8C029F0000E2A6EC80E2B6E420ED3
:102000002C6E49EC1FF027C0AAF128C0ABF129C003
:10201000ACF1000E0101AD6FC80E0101AE6F420EB2
:102020000101AF6FAA0E19EC26F0ADC173F0AEC17D
:1020300074F0AFC175F051EC1BF0000174C073F087
:102040000001746B000173BF74690001735119ECD6
:1020500026F0ADC173F0AEC174F0AFC175F051ECB4
:102060001BF00001735119EC26F0AAC173F0ABC14B
:1020700074F0ACC175F051EC1BF0000174C073F04A
:102080000001746B000173BF74690001735119EC96
:1020900026F0AAC173F0ABC174F0ACC175F051EC7D
:1020A0001BF00001735119EC26F094D685C060F046
:1020B00086C061F087C062F06CEC24F060C06FF005
:1020C00061C070F062C071F082C060F083C061F0E6
:1020D00084C062F06CEC24F060C06CF061C06DF004
:1020E00062C06EF0BFEC23F06CC073F06DC074F092
:1020F0006EC075F085C060F086C061F087C062F088
:102100006CEC24F060C06FF061C070F062C071F0E0
:1021100082C060F083C061F084C062F06CEC24F097
:1021200060C06CF061C06DF062C06EF0DEEC23F058
:102130006CC076F06DC077F06EC078F0ABEC1AF042
:1021400073C094F074C095F075C096F094C027F0F9
:1021500095C028F096C029F094C02AF095C02BF0C5
:1021600096C02CF049EC1FF027C091F028C092F0E7
:1021700029C093F0230E00016A6F230E00016B6FDC
:102180003E0E00016C6F730E2A6E3E0E2B6EBD0E5E
:102190002C6E91C027F092C028F093C029F049EC32
:1021A0001FF027C067F028C068F029C069F003EC71
:1021B00016F067C088F068C089F069C08AF0BE0E6A
:1021C00000016A6FA70E00016B6FBE0E00016C6FFD
:1021D00091C02AF092C02BF093C02CF088C027F059
:1021E00089C028F08AC029F049EC1FF027C067F0A9
:1021F00028C068F029C069F003EC16F067C08BF0C6
:1022000068C08CF069C08DF091C02AF092C02BF0AC
:1022100093C02CF08BC027F08CC028F08DC029F023
:1022200049EC1FF027C08EF028C08FF029C090F035
:1022300094C02AF095C02BF096C02CF08EC027F0E9
:102240008FC028F090C029F049EC1FF027C067F03C
:1022500028C068F029C069F094C06AF095C06BF09E
:1022600096C06CF003EC16F067C097F068C098F069
:1022700069C099F082C060F083C061F084C062F0F0
:102280006CEC24F060C063F061C064F062C065F083
:1022900085C060F086C061F087C062F06CEC24F00D
:1022A00060C066F061C067F062C068F0B0EC20F01A
:1022B0000001D8B01FD097C036F098C037F099C051
:1022C00038F04EEC25F036C067F037C068F038C003
:1022D00069F0100E00016A6FC90E00016B6F3F0EAE
:1022E00000016C6F03EC16F067C097F068C098F0BF
:1022F00069C099F0000184AF1FD097C036F098C034
:1023000037F099C038F04EEC25F036C067F037C092
:1023100068F038C069F0100E00016A6F490E0001C4
:102320006B6F400E00016C6F03EC16F067C097F006
:1023300068C098F069C099F0000187AF0ED097C0CF
:1023400036F098C037F099C038F04EEC25F036C022
:1023500097F037C098F038C099F0000E2A6E340E0E
:102360002B6E430E2C6E97C027F098C028F099C0B2
:1023700029F049EC1FF027C073F028C074F029C081
:1023800075F0100E0001766F490E0001776F400E58
:102390000001786FABEC1AF073C097F074C098F03E
:1023A00075C099F097C036F098C037F099C038F0F2
:1023B0004EEC25F036C067F037C068F038C069F0E1
:1023C000000E00016A6FB40E00016B6F420E000137
:1023D0006C6F03EC16F067C097F068C098F069C0A6
:1023E00099F097C082F098C083F099C084F01200F1
:1023F00052EC26F0AFEC25F013C0A5F114C0A6F105
:10240000A5C11BF0A6C11CF060EC25F01BC027F095
:102410001CC028F01DC029F0F50E2A6E320E2B6E5E
:10242000340E2C6E49EC1FF027C08DF128C08EF1C0
:1024300029C08FF1000E146E000E136E42EC26F0D0
:1024400056EC26F0C5C036F0C6C037F0C7C038F02D
:102450004EEC25F036C090F137C091F138C092F1C2
:10246000C2C085F0C3C086F0C4C087F090C182F0BE
:1024700091C183F092C184F056EC10F082C093F1C8
:1024800083C094F184C095F193C12AF094C12BF0DC
:1024900095C12CF0000E00016A6F800E00016B6F79
:1024A0003F0E00016C6FF7C036F0F8C037F0F9C08E
:1024B00038F04EEC25F036C067F037C068F038C011
:1024C00069F003EC16F067C027F068C028F069C017
:1024D00029F049EC1FF027C096F128C097F129C0D8
:1024E00098F1F7C02AF0F8C02BF0F9C02CF0B3C077
:1024F00027F0B4C028F0B5C029F049EC1FF027C080
:1025000067F028C068F029C069F096C16AF097C1E9
:102510006BF098C16CF003EC16F067C0B3F068C0C4
:10252000B4F069C0B5F08DC12AF08EC12BF08FC117
:102530002CF0BFC027F0C0C028F0C1C029F049EC82
:102540001FF027C099F128C09AF129C09BF1B6C0AD
:1025500073F0B7C074F0B8C075F05C0E2A6E8F0EC1
:102560002B6E3C0E2C6E99C127F09AC128F09BC1AE
:1025700029F049EC1FF027C076F028C077F029C079
:1025800078F099EC23F073C0B6F074C0B7F075C062
:10259000B8F0C5C036F0C6C037F0C7C038F04EEC52
:1025A00025F036C09CF137C09DF138C09EF1C2C005
:1025B00095F0C3C096F0C4C097F09CC192F09DC145
:1025C00093F09EC194F06FEC13F092C09FF193C012
:1025D000A0F194C0A1F1000E00016A6F800E00010D
:1025E0006B6F3F0E00016C6FF7C036F0F8C037F02C
:1025F000F9C038F04EEC25F036C067F037C068F00F
:1026000038C069F003EC16F067C027F068C028F006
:1026100069C029F09FC12AF0A0C12BF0A1C12CF004
:1026200049EC1FF027C000F128C001F129C002F1D8
:10263000090E0001EC651200000E0001EC6FB3C042
:102640002AF0B4C02BF0B5C02CF0000E00016A6F68
:10265000800E00016B6F3F0E00016C6FF4C036F00E
:10266000F5C037F0F6C038F04EEC25F036C067F014
:1026700037C068F038C069F003EC16F067C027F087
:1026800068C028F069C029F049EC1FF027C0A2F10A
:1026900028C0A3F129C0A4F1F4C02AF0F5C02BF0A2
:1026A000F6C02CF0B6C027F0B7C028F0B8C029F0AB
:1026B00049EC1FF027C067F028C068F029C069F016
:1026C000A2C16AF0A3C16BF0A4C16CF003EC16F0D8
:1026D00067C0B6F068C0B7F069C0B8F0120000017A
:1026E00095510001961100019711D8A43DD0000129
:1026F00092510001931100019411D8A40FD0000E43
:102700000001DB6F210EDA6F000E0001926F000EE8
:102710000001936F000E0001946F1200000E000183
:10272000636F000E0001646F000E0001656F92C0C0
:1027300066F093C067F094C068F0B0EC20F0000140
:10274000D8B00AD0100E0001926FC90E0001936F2D
:102750003F0E0001946F1200100E0001926FC90E1F
:102760000001936FBF0EF5D7000192510001931144
:1027700000019411D8A426D0000E0001636F000E52
:102780000001646F000E0001656F95C066F096C091
:1027900067F097C068F0B0EC20F00001D8B00AD024
:1027A000000E0001926F000E0001936F000E0001F9
:1027B000946F1200100E0001926F490E0001936F8A
:1027C000400EF5D795C060F096C061F097C062F0FA
:1027D0006CEC24F060C063F061C064F062C065F02E
:1027E00092C060F093C061F094C062F06CEC24F091
:1027F00060C066F061C067F062C068F0B0EC20F0C5
:102800000001D8A05ED092C073F093C074F094C061
:1028100075F095C076F096C077F097C078F0ABEC85
:102820001AF073C09BF074C09CF075C09DF09BC003
:1028300082F09CC083F09DC084F038EC18F082C018
:102840009EF083C09FF084C0A0F0000197AF32D00B
:10285000000194BF18D09EC067F09FC068F0A0C070
:1028600069F0100E00016A6F490E00016B6F400E97
:1028700000016C6F03EC16F067C09EF068C09FF01B
:1028800069C0A0F017D09EC073F09FC074F0A0C0C4
:1028900075F0100E0001766F490E0001776F400E43
:1028A0000001786F99EC23F073C09EF074C09FF024
:1028B00075C0A0F09EC092F09FC093F0A0C094F0AD
:1028C000120092C076F093C077F094C078F095C073
:1028D00073F096C074F097C075F0ABEC1AF073C04B
:1028E0009BF074C09CF075C09DF09BC082F09CC0B2
:1028F00083F09DC084F038EC18F082C098F083C05B
:1029000099F084C09AF098C036F099C037F09AC018
:1029100038F04EEC25F036C09EF037C09FF038C03E
:10292000A0F0000194AF18D09EC073F09FC074F067
:10293000A0C075F0100E0001766FC90E0001776F10
:102940003F0E0001786F99EC23F073C09EF074C0C5
:102950009FF075C0A0F017D09EC067F09FC068F0D0
:10296000A0C069F0100E00016A6FC90E00016B6F04
:102970003F0E00016C6F03EC16F067C09EF068C05C
:102980009FF069C0A0F09EC092F09FC093F0A0C0DD
:1029900094F012000001666F6D0E00016665A8D00C
:1029A000000E246E030E236E000E1C6E0A0E1B6EAC
:1029B000000E166E640E156E66C013F0146AD7EC26
:1029C00022F013C019F014C01AF054EC22F0090ED2
:1029D0001924216E000E1A20226E28EC25F0500ECC
:1029E0002124F66E0F0E2220F76EF86A000EF822F0
:1029F0000900F5CF2AF00900F5CF2BF00A00F5CF3A
:102A00002CF0000E1C6E640E1B6E66C019F01A6A64
:102A100054EC22F0120E1924216E000E1A20226EA0
:102A2000000E246E030E236E28EC25F0500E212498
:102A3000F66E0F0E2220F76EF86A000EF8220900DB
:102A4000F5CF27F00900F5CF28F00A00F5CF29F0DF
:102A500049EC1FF027C063F028C064F029C065F07E
:102A6000000E246E030E236E000E166E0A0E156EF7
:102A700066C013F0146AD7EC22F013C021F014C022
:102A800022F028EC25F0500E2124F66E0F0E2220A5
:102A9000F76EF86A000EF8220900F5CF2AF0090057
:102AA000F5CF2BF00A00F5CF2CF063C027F064C0FF
:102AB00028F065C029F049EC1FF027C060F028C05D
:102AC00061F029C062F060C027F061C028F062C0E8
:102AD00029F0000E2A6E000E2B6E3F0E2C6E49EC74
:102AE0001FF027C036F028C037F029C038F0120098
:102AF0000A0E0001666563D0000E246E030E236E7D
:102B0000000E166E0A0E156E66C013F0146AD7EC2E
:102B100022F013C021F014C022F028EC25F0500E52
:102B20002124F66E0F0E2220F76EF86A000EF822AE
:102B30000900F5CF2AF00900F5CF2BF00A00F5CFF8
:102B40002CF0000E1C6E0A0E1B6E66C019F01A6A7D
:102B500054EC22F0090E1924216E000E1A20226E68
:102B6000000E246E030E236E28EC25F0500E212457
:102B7000F66E0F0E2220F76EF86A000EF82209009A
:102B8000F5CF27F00900F5CF28F00A00F5CF29F09E
:102B900049EC1FF027C063F028C064F029C065F03D
:102BA00063C027F064C028F065C029F0000E2A6ECB
:102BB000000E2B6E3F0E2C6E49EC1FF092D70001D9
:102BC0006651030D500EF324F66E0F0EF420F76ECF
:102BD000F86A000EF8220900F5CF27F00900F5CFBA
:102BE00028F00A00F5CF29F0000E2A6E000E2B6E99
:102BF0003F0E2C6E49EC1FF027C036F028C037F08E
:102C000029C038F0120069C06DF000016E6B6F6B67
:102C10000001683500016D3701E36E8100016D51DF
:102C20000001726F6CC06DF000016E6B6F6B000184
:102C30006B3500016D3701E36E8100016D510001BC
:102C4000716F000172510001D8B411D000017151AF
:102C50000001725DD8B012D000017251000800016D
:102C6000712500016D6F180E00016D6507D06AC0F7
:102C700067F06BC068F06CC069F012000001715120
:102C80000001D8B411D0000172510001715DD8B0BB
:102C900012D00001715100080001722500016D6F12
:102CA000180E00016D6507D067C067F068C068F056
:102CB00069C069F01200060E0001706F000169AF73
:102CC00002D00001708F00016CAF02D00001708D46
:102CD0000001688FFF0E00016717FF0E00016817E3
:102CE000000E0001691700016B8FFF0E00016A17CB
:102CF000FF0E00016B17000E00016C1700017151EF
:102D00000001725DD8B025D00001D8906A376B37CA
:102D10006C37000171070001725100017119D8B4BC
:102D200011D00001700770C06DF0070E00016D1723
:102D3000D8B408D0E9D70001D89069336833673335
:102D40000001722B0001715100017219D8B42BD00F
:102D5000F2D7000172510001715DD8B024D000019A
:102D6000D8906737683769370001720700017251E0
:102D700000017119D8B411D00001700770C06DF056
:102D8000070E00016D17D8B408D0E9D70001D8901C
:102D90006C336B336A330001712B000171510001F8
:102DA0007219D8A4F3D7000170AF12D0FF0E000142
:102DB000671BFF0E0001681BFF0E0001691B010E5F
:102DC00000016727000E00016823000E000169233F
:102DD000000170AD12D0FF0E00016A1BFF0E000152
:102DE0006B1BFF0E00016C1B010E00016A27000E19
:102DF00000016B23000E00016C23000E0001706FB8
:102E00000001675100016A270001685100016B232E
:102E10000001695100016C2300016CAF15D0FF0E59
:102E200000016A1BFF0E00016B1BFF0E00016C1BF3
:102E3000010E00016A27000E00016B23000E000145
:102E40006C23010E0001706F6AC013F06BC014F0A8
:102E50006CC015F072C016F070C017F014EC21F0C1
:102E600013C067F014C068F015C069F012000001CB
:102E700020EE09F08251D9268351DA22DECF67F0A5
:102E8000DECF68F0DDCF69F082C0D9FF83C0DAFF02
:102E9000DECF6AF0DECF6BF0DDCF6CF003EC16F026
:102EA000000120EE09F08251D9268351DA2267C051
:102EB000DEFF68C0DEFF69C0DEFF000120EE09F022
:102EC0008251D9268351DA22DECF73F0DECF74F03F
:102ED000DDCF75F0000120EE03F08251D926835139
:102EE000DA22DECF6AF0DECF6BF0DDCF6CF00001CE
:102EF00020EE09F08251D9268351DA22DECF67F025
:102F0000DECF68F0DDCF69F003EC16F067C076F035
:102F100068C077F069C078F0ABEC1AF0000120EEE1
:102F20000CF08251D9268351DA2273C0DEFF74C0BF
:102F3000DEFF75C0DEFF000120EE0CF08251D926C5
:102F40008351DA22DECF2AF0DECF2BF0DDCF2CF05A
:102F500084C06AF085C06BF086C06CF0000120EE82
:102F600006F08251D9268351DA22DECF36F0DECF49
:102F700037F0DDCF38F04EEC25F036C067F037C0C3
:102F800068F038C069F003EC16F067C027F068C03D
:102F900028F069C029F049EC1FF027C087F028C04D
:102FA00088F029C089F087C067F088C068F089C0C0
:102FB00069F0000120EE06F08251D9268351DA2211
:102FC000DECF6AF0DECF6BF0DDCF6CF003EC16F0F5
:102FD000000120EE06F08251D9268351DA2267C023
:102FE000DEFF68C0DEFF69C0DEFF000E00016A6F11
:102FF000800E00016B6F3F0E00016C6F000120EE30
:103000000CF08251D9268351DA22DECF36F0DECFA2
:1030100037F0DDCF38F04EEC25F036C067F037C022
:1030200068F038C069F003EC16F067C027F068C09C
:1030300028F069C029F0000120EE09F08251D9265C
:103040008351DA22DECF2AF0DECF2BF0DDCF2CF059
:1030500049EC1FF0000120EE09F08251D92683517E
:10306000DA2227C0DEFF28C0DEFF29C0DEFF120003
:1030700082C060F083C061F084C062F06CEC24F028
:1030800060C08FF061C090F062C091F000018F517C
:103090000001901100019111D8A40AD0000E000186
:1030A000826F000E0001836F000E0001846F12001A
:1030B000000E0001636F800E0001646F3F0E00017F
:1030C000656F8FC066F090C067F091C068F0B0EC9B
:1030D00020F00001D8B002D0010E01D0000E000196
:1030E0008B6F00018B51D8B417D0000E0001736FA5
:1030F000800E0001746F3F0E0001756F8FC076F077
:1031000090C077F091C078F0ABEC1AF073C08FF0FC
:1031100074C090F075C091F08FC027F090C028F077
:1031200091C029F08FC02AF090C02BF091C02CF0F4
:1031300049EC1FF027C08CF028C08DF029C08EF01C
:103140008CC073F08DC074F08EC075F0890E0001D4
:10315000766F0F0E0001776F000E0001796F040E7D
:10316000786F3CEC20F073C085F074C086F075C0B9
:1031700087F08CC073F08DC074F08EC075F0770E40
:103180000001766F0F0E0001776F000E0001796F5E
:10319000050E786F3CEC20F073C088F074C089F0A5
:1031A00075C08AF08FC027F090C028F091C029F038
:1031B00085C076F086C077F087C078F088C073F05D
:1031C00089C074F08AC075F0ABEC1AF073C02AF0B5
:1031D00074C02BF075C02CF049EC1FF027C08FF0A5
:1031E00028C090F029C091F000018B510001D8B4A3
:1031F0001FD08FC036F090C037F091C038F04EEC41
:1032000025F036C067F037C068F038C069F0100E9E
:1032100000016A6FC90E00016B6F3F0E00016C6FF9
:1032200003EC16F067C08FF068C090F069C091F0B1
:10323000000184BF07D08FC082F090C083F091C09E
:1032400084F012008FC036F090C037F091C038F093
:103250004EEC25F036C082F037C083F038C084F0E1
:103260001200C8C078F1C9C079F1CAC07AF1000E65
:1032700001017B6F800E01017C6F3F0E01017D6FAC
:10328000CD0E0101726FCC0E0101736F3D0E010175
:10329000746F000E0101756FF00E0101766F400E24
:1032A0000101776FC5C069F1C6C06AF1C7C06BF193
:1032B000000E01016C6F800E01016D6F3F0E010168
:1032C0006E6FCD0E0101636FCC0E0101646F3D0E78
:1032D0000101656F000E0101666FF00E0101676F5D
:1032E000400E0101686FC2C05AF1C3C05BF1C4C097
:1032F0005CF1000E01015D6F800E01015E6F3F0EFB
:1033000001015F6FCD0E0101546FCC0E0101556FAD
:103310003D0E0101566F000E0101576FF00E0101C5
:10332000586F400E0101596FBFC04BF1C0C04CF146
:10333000C1C04DF1000E01014E6F800E01014F6FB3
:103340003F0E0101506F000E0101456F400E01015B
:10335000466F3F0E0101476F000E0101486FA00E3E
:103360000101496F400E01014A6FBCC03CF1BDC074
:103370003DF1BEC03EF1000E01013F6F800E010124
:10338000406F3F0E0101416F000E0101366F400E8C
:103390000101376F3F0E0101386F000E0101396FD7
:1033A000A00E01013A6F400E01013B6FB9C02DF133
:1033B000BAC02EF1BBC02FF1000E0101306F800E9C
:1033C0000101316F3F0E0101326F000E0101276FC5
:1033D000400E0101286F3F0E0101296F000E01010F
:1033E0002A6FA00E01012B6F400E01012C6F1200FD
:1033F000B6C036F0B7C037F0B8C038F04EEC25F0A4
:1034000036C067F037C068F038C069F082C06AF033
:1034100083C06BF084C06CF003EC16F067C08BF0D7
:1034200068C08CF069C08DF08BC036F08CC037F06E
:103430008DC038F04EEC25F036C067F037C068F02C
:1034400038C069F0CEC06AF0CFC06BF0D0C06CF06D
:1034500003EC16F067C085F068C086F069C087F09D
:10346000CBC067F0CCC068F0CDC069F08BC06AF00B
:103470008CC06BF08DC06CF003EC16F067C0CBF025
:1034800068C0CCF069C0CDF0CBC02AF0CCC02BF026
:10349000CDC02CF0D4C027F0D5C028F0D6C029F07C
:1034A00049EC1FF027C06AF028C06BF029C06CF00F
:1034B0008BC02AF08CC02BF08DC02CF0D7C027F029
:1034C000D8C028F0D9C029F049EC1FF027C067F018
:1034D00028C068F029C069F003EC16F067C088F0D6
:1034E00068C089F069C08AF085C02AF086C02BF0D8
:1034F00087C02CF0D1C027F0D2C028F0D3C029F06B
:1035000049EC1FF027C036F028C037F029C038F04A
:103510004EEC25F036C06AF037C06BF038C06CF066
:1035200088C067F089C068F08AC069F003EC16F0C3
:1035300067C073F068C074F069C075F051EC1BF09F
:1035400073C0E8F074C0E9F08BC0CEF08CC0CFF04F
:103550008DC0D0F0120075C079F000017A6B7B6BE2
:10356000000174350001793701E37A810001795156
:103570000001806F00018051D8A40AD0000E000124
:10358000736F000E0001746F000E0001756F120062
:1035900078C079F000017A6B7B6B00017735000110
:1035A000793701E37A81000179510001816F0001CF
:1035B0008151D8A40AD0000E0001736F000E0001E3
:1035C000746F000E0001756F1200000E00017D6F18
:1035D000000E00017E6F000E00017F6F000181511F
:1035E000890F0001805F75C081F0000178510001F2
:1035F000811B800E000181170001748FFF0E0001F6
:103600007317FF0E00017417000E000175170001FB
:10361000778FFF0E00017617FF0E00017717000E5F
:1036200000017817180E00017C6F0001D8907D37DB
:103630007E377F37000176510001735D00017751BD
:10364000000174590001785100017559D8A00ED0BD
:10365000000176510001735F000177510001745B36
:10366000000178510001755B00017D810001D89057
:1036700073377437753700017C2FD7D77DC013F0AF
:103680007EC014F07FC015F080C016F081C017F026
:1036900014EC21F013C073F014C074F015C075F071
:1036A000120075C077F00001786B796B00017435FA
:1036B0000001773701E37881000177510001816FC4
:1036C00000018151D8A40AD0000E0001736F000ED2
:1036D000746F000E756F000E766F1200170E0001EA
:1036E000776F73C078F074C079F075C07AF000011C
:1036F000772900017B6F05D00001D8907A337933A8
:10370000783300017B2FF8D70001785100017C6FDE
:103710000001748FFF0E00017317FF0E0001741774
:10372000000E000175170001735100017D6F00014B
:10373000745100017E6F0001755100017F6F00011F
:10374000806B8E0E0001815F000181AF1AD00001F5
:103750008151800A8F0FD8B00AD0000E0001736F1C
:10376000000E746F000E756F000E766F1200000170
:10377000D89080337F337E337D330001813FF7D78C
:103780001BD0170E0001816512D0000E0001736F6F
:10379000000E746F000E756F000E766F1200000140
:1037A000D8907D377E377F37803700018107000151
:1037B00081510001D8A4F3D700017C510001D8B495
:1037C00009D00001801F7F1F7E1F7D6D000E7E23AC
:1037D0007F2380237DC073F07EC074F07FC075F0BE
:1037E00080C076F0120015C019F01A6A1B6A1434F2
:1037F000193601E31A801950216E2150D8A409D03E
:10380000000E136E000E146E000E156E000E166E76
:10381000120018C019F01A6A1B6A1734193601E32E
:103820001A801950206E2050D8A409D0000E136EB3
:10383000000E146E000E156E000E166E1200148E21
:10384000FF0E1316FF0E1416000E1516178EFF0E20
:103850001616FF0E1716000E1816000E1C6E000E20
:103860001D6E000E1E6E000E1F6E7F0E215E20501C
:10387000980F215E180E206ED8901C361D361E360D
:103880001F361650135C1750145818501558D8A0EE
:1038900007D01650135E1750145A1850155A1C8032
:1038A000D890133614361536202EE6D721AE16D012
:1038B0002150800A970FD8B009D0000E136E000E69
:1038C000146E000E156E000E166E1200D8901F3288
:1038D0001E321D321C32213EF9D715D0170E21643D
:1038E0000FD0000E136E000E146E000E156E000E3B
:1038F000166E1200D8901C361D361E361F36210655
:103900002150D8A4F7D71CC013F01DC014F01EC05E
:1039100015F01FC016F01200153416341E6E1E501E
:10392000D8A409D0000E136E000E146E000E156E92
:10393000000E166E1200183419341D6E1D50D8A4D6
:1039400009D0000E136E000E146E000E156E000EE0
:10395000166E1200158EFF0E1316FF0E1416FF0EB4
:103960001516000E1616188EFF0E1616FF0E1716D9
:10397000FF0E1816000E1916000E196E000E1A6EA4
:10398000000E1B6E000E1C6E7F0E1E5E1D50A00FE3
:103990001E5E200E1D6ED89019361A361B361C3648
:1039A0001650135C175014581850155819501658C3
:1039B000D8A009D01650135E1750145A1850155A33
:1039C0001950165A1980D8901336143615361636F3
:1039D0001D2EE1D71EAE16D01E50800A9F0FD8B004
:1039E00009D0000E136E000E146E000E156E000E40
:1039F000166E1200D8901C321B321A3219321E3E3B
:103A0000F9D715D01F0E1E640FD0000E136E000ED6
:103A1000146E000E156E000E166E1200D890193638
:103A20001A361B361C361E061E50D8A4F7D719C0EE
:103A300013F01AC014F01BC015F01CC016F01200D1
:103A4000A80E156E860E166E000E176E060E186EF8
:103A5000320E6BEC21F0000187510001836F826B05
:103A6000000186510001846F856B000182510001C5
:103A700084111B6E00018351000185111C6E19EC2D
:103A800024F01BC073F01CC074F01DC075F0000E54
:103A90000001766F800E0001776F410E0001786F94
:103AA000ABEC1AF073C0C8F074C0C9F075C0CAF0AE
:103AB000000189510001836F826B00018851000170
:103AC000846F856B00018251000184111B6E00011F
:103AD0008351000185111C6E19EC24F01BC073F09A
:103AE0001CC074F01DC075F0000E0001766F800ED2
:103AF0000001776F410E0001786FABEC1AF073C0D4
:103B0000C5F074C0C6F075C0C7F000018B5100014C
:103B1000836F826B00018A510001846F856B000105
:103B20008251000184111B6E000183510001851137
:103B30001C6E19EC24F01BC073F01CC074F01DC087
:103B400075F0000E0001766F800E0001776F410E58
:103B50000001786FABEC1AF073C0C2F074C0C3F010
:103B600075C0C4F012008EC082F08FC083F090C088
:103B700084F0F8EC19F091C013F092C014F093C0E7
:103B800015F059EC26F094C013F095C014F096C0CF
:103B900015F058EC26F0E8C097F0E9C098F0000165
:103BA000971F981F974B982B0001DC510001972518
:103BB000446E0001DD5100019821456E0001E8517D
:103BC0000001DC25426E0001E9510001DD21436E58
:103BD0000001E8510001DC250001E26F0001E9511C
:103BE0000001DD210001E36FE8C097F0E9C098F023
:103BF0000001971F981F974B982B0001DC51000183
:103C000097250001E06F0001DD51000198210001BE
:103C1000E16F45AE09D0000E456E000E446E000EF9
:103C20000001E16F000EE06F45BE0FD02D0E445C29
:103C3000010E4558D8A009D0010E456E2C0E446ED9
:103C4000010E0001E16F2C0EE06F43AE09D0000EB3
:103C5000436E000E426E000E0001E36F000EE26F35
:103C600043BE12002D0E425C010E4358D8A0120034
:103C7000010E436E2C0E426E010E0001E36F2C0EFE
:103C8000E26F1200000E0001D76F000E0001D86F26
:103C9000000E0001D96F000E0001D46F000E00016C
:103CA000D56F000E0001D66F000E0001D16F000E1F
:103CB0000001D26F000E0001D36F000E0001CE6F25
:103CC000000E0001CF6F000E0001D06F000E00014A
:103CD000CB6F000E0001CC6F000E0001CD6F000E07
:103CE0000101246F000E0101256F000E0101266FF6
:103CF000000E0101216F000E0101226F000E010173
:103D0000236F000E01011E6F000E01011F6F000ED8
:103D10000101206F000E01011B6F000E01011C6FDD
:103D2000000E01011D6F000E0101186F000E010150
:103D3000196F000E01011A6F000E0101156F000EC0
:103D40000101166F000E0101176F000E0101126FC5
:103D5000000E0101136F000E0101146F000E01012E
:103D60000F6F000E0101106F000E0101116F000EA8
:103D700001010C6F000E01010D6F000E01010E6FAD
:103D8000000E0101096F000E01010A6F000E010112
:103D90000B6F1200000E876E000E866E000E836E93
:103DA000000E846E000E856E070E8C6ECF0E886E30
:103DB000F90E896E7F0E8A6E8B68A70E0F01216F38
:103DC0000F0119690F012669070E0F012E6F0F01F0
:103DD0001169000E0F01256F000E0F012D6F000EEF
:103DE0000F01186F000E0F01106F000E0F01206FF2
:103DF000000E0F012C6F000E0F010F6F000E0F0150
:103E0000176F000E0F011F6F000E0F01246F000EC1
:103E1000F2BE010E136EF29E550E0E01A06FAA0E99
:103E20000E01A06F0E01A091070E0E01EB6F050EA3
:103E30000E01F06F0F0E0E01FA6F060E0E01F16FFC
:103E4000100E0E01FB6F080E0E01EC6F0E01B59106
:103E5000B583B585B597B589090E0E01FE6F0E01C4
:103E6000B781B783B795B797B7890E01B891B89363
:103E7000B885B897B889550E0E01A06FAA0E0E012D
:103E8000A06F0E01A08113A002D0F28E1200F29E4C
:103E9000120029C02DF02E6A2F6A28342D3601E336
:103EA0002E802D50306E3050D8A407D0000E276ED3
:103EB000000E286E000E296E12002CC02DF02E6A06
:103EC0002F6A2B342D3601E32E802D50356E355060
:103ED000D8A407D0000E276E000E286E000E296EA3
:103EE000120035507B0F302629C035F02C50351A82
:103EF000800E3516288E2B8EFF0E2A16FF0E2B16DF
:103F0000000E2C16000E316E000E326E000E336E57
:103F1000070E346E27A006D02A5031262B503222AD
:103F20002C503322D890293228322732D8902A3682
:103F30002B362C36342EEED7090E346E27A006D041
:103F40002A5031262B5032222C503322D89029323D
:103F500028322732D890333232323132342EEED7F3
:103F600031C013F032C014F033C015F030C016F079
:103F700035C017F014EC21F013C027F014C028F05E
:103F800015C029F01200720E0001826F010E0001AF
:103F9000836FC8C084F0C9C085F0CAC086F037EC12
:103FA00017F0630E0001826F010E0001836FC5C020
:103FB00084F0C6C085F0C7C086F037EC17F0540E09
:103FC0000001826F010E0001836FC2C084F0C3C084
:103FD00085F0C4C086F037EC17F0450E0001826F03
:103FE000010E0001836FBFC084F0C0C085F0C1C066
:103FF00086F037EC17F0360E0001826F010E0001DB
:10400000836FBCC084F0BDC085F0BEC086F037ECC5
:1040100017F0270E0001826F010E0001836FB9C0F7
:1040200084F0BAC085F0BBC086F037EC17F078C1D9
:10403000C8F079C1C9F07AC1CAF069C1C5F06AC1D6
:10404000C6F06BC1C7F05AC1C2F05BC1C3F05CC11E
:10405000C4F04BC1BFF04CC1C0F04DC1C1F03CC178
:10406000BCF03DC1BDF03EC1BEF02DC1B9F02EC1C6
:10407000BAF02FC1BBF0120078C021F079C022F055
:10408000000E246E030E236E28EC25F076C07AF025
:1040900077C07BF0215000017A27225000017B235A
:1040A0007AC0F6FF7BC0F7FF000EF86E0900F5CF6F
:1040B0007CF00900F5CF7DF00A00F5CF7EF043D00B
:1040C0007CC02AF07DC02BF07EC02CF073C027F09E
:1040D00074C028F075C029F049EC1FF027C067F0C4
:1040E00028C068F029C069F0000E246E030E236E0C
:1040F00000017807D8A0790778C021F079C022F0B4
:1041000028EC25F076C07AF077C07BF021500001D2
:104110007A27225000017B237AC0F6FF7BC0F7FF8D
:10412000000EF86E0900F5CF6AF00900F5CF6BF0CC
:104130000A00F5CF6CF003EC16F067C07CF068C0A5
:104140007DF069C07EF00001785100017911D8A49A
:10415000B7D77CC073F07DC074F07EC075F01200DC
:10416000000165AF1DD063C069F064C06AF065C02E
:104170006BF00001691F6A1F6B1F692B000E6A2319
:104180006B23000E000169250001636F000E000122
:104190006A210001646F800E00016B210001656FD0
:1041A000000168AF1DD066C069F067C06AF068C0E2
:1041B0006BF00001691F6A1F6B1F692B000E6A23D9
:1041C0006B23000E000169250001666F000E0001DF
:1041D0006A210001676F800E00016B210001686F8A
:1041E000000E0001631B000E0001641B800E000125
:1041F000651B000E0001661B000E0001671B800E90
:104200000001681B000166510001635D00016751F8
:10421000000164590001685100016559D8B002D00D
:10422000D8901200D88012001650D8B405D0135080
:1042300014101510D8A40CD0000E136E000E146EBE
:10424000000E156E1200162AD89015321432133251
:10425000000E1314186E000E1414196EFE0E1514B1
:104260001A6E185019101A10D8B40CD0ECD7162AA0
:10427000010E1326000E1422000E1522D8901532BE
:1042800014321332000E1314186E000E1414196E2B
:10429000FF0E15141A6E185019101A10D8B406D043
:1042A000E6D71606D89013361436153614BE03D04A
:1042B000020E1660F6D716A0149ED890163216502D
:1042C00015121750D8A4158E13C013F014C014F093
:1042D00015C015F012001D6E000E1F6E000E1E6E32
:1042E00027EC26F01D50FE0BF5EC25F01550F5ECF3
:1042F00025F050EC26F027EC26F01D500109F5ECD6
:1043000025F0000E1F6E000E1E6E11D01E501624DA
:10431000D96E1F501720DA6E11EC26F0DF6EFFEC1D
:1043200025F04AEC26F0FFEC25F01E4A1F2AFF0E6E
:10433000196EFF0E1A6E18501B6E1C6A19501B2640
:104340001A501C221B501E5C1C501F58D8A0DED7D0
:10435000FF0E196EFF0E1A6E18501B6E1C6A195054
:104360001B261A501C221B501624D96E1C501720D5
:10437000DA6E11EC26F0DF6EFFEC25F050EC26F043
:1043800012000001EBBF08D0D00E0001EA5D070E5D
:104390000001EB59D8B016D00001EA4BEB2B000E10
:1043A000456E000E446E000E436E000E426E000E0F
:1043B0000001E36F000EE26F000E0001E16F000EDE
:1043C000E06F03D0010E0001ED6F0001EC2B750EC4
:1043D0004424016E010E4520026E12EC25F0750E8C
:1043E0004224016E010E4320026EFCEC24F0750E97
:1043F0000001E225016E010E0001E321026E9EEC38
:1044000024F0750E0001E025016E010E0001E1218E
:10441000026E85EC24F01200A80E156E240E166EA6
:10442000000E176E060E186ED60E6BEC21F025509E
:10443000216E206A2450226E236A205022101B6EA7
:10444000215023101C6E19EC24F01BC0BFF01CC0BF
:10445000C0F01DC0C1F02750216E206A2650226E88
:10446000236A205022101B6E215023101C6E19EC61
:1044700024F01BC0BCF01CC0BDF01DC0BEF0295014
:10448000216E206A2850226E236A205022101B6E53
:10449000215023101C6E19EC24F01BC0B9F01CC075
:1044A000BAF01DC0BBF01200000E1E6E1CAE06D08E
:1044B0001B6C1C1ED8B01C2A010E1E6E1AAE06D034
:1044C000196C1A1ED8B01A2A010E1E1A000E206E80
:1044D000000E1F6E1B501C10D8B41CD0010E1D6E98
:1044E00004D0D8901B361C361D2A1CAEFAD7D890A3
:1044F0001F3620361B50195C1C501A58D8A005D006
:104500001B50195E1C501A5A1F80D8901C321B3247
:104510001D2EEDD71E50D8B404D01F6C201ED8B06D
:10452000202A1FC019F020C01AF01200000E1B6EC6
:10453000000E1C6E000E1D6E000E1E6E1750181021
:1045400019101A10D8B42AD0010E1F6E06D0D890B8
:104550001736183619361A361F2A1AAEF8D7D890D9
:104560001B361C361D361E361750135C1850145857
:10457000195015581A501658D8A009D01750135E64
:104580001850145A1950155A1A50165A1B80D890A0
:104590001A321932183217321F2EE1D71BC013F00E
:1045A0001CC014F01DC015F01EC016F01200000E45
:1045B000186E14AE06D0136C141ED8B0142A010E57
:1045C000186E16AE04D0156C161ED8B0162A1550EB
:1045D0001610D8B418D0010E176E04D0D890153626
:1045E0001636172A16AEFAD71550135C1650145803
:1045F000D8A004D01550135E1650145AD890163215
:104600001532172EF1D71850D8B404D0136C141EDD
:10461000D8B0142A13C013F014C014F012002450A0
:10462000251026102710D8B424D0010E286E06D0ED
:10463000D8902436253626362736282A27AEF8D7AE
:104640002450205C255021582650225827502358AA
:10465000D8A008D02450205E2550215A2650225A36
:104660002750235AD8902732263225322432282E3A
:10467000E7D720C020F021C021F022C022F023C0C3
:1046800023F012008E0E236E06D0D8901E321D32FB
:104690001C321B32232A000E1B141F6E000E1C142A
:1046A000206E000E1D14216EFF0E1E14226E1F5070
:1046B000201021102210D8A4E8D71BC013F01CC072
:1046C00014F01DC015F023C016F0000E176E14EC88
:1046D00021F013C01BF014C01CF015C01DF0120017
:1046E000818E819C8E0EF66E4C0EF76E000EF86E6B
:1046F00000EEF4F010EE06F00900F5CFEEFFE55005
:10470000E150FAE101EE00F08D0EEE6AE806FDE1FF
:1047100000EEACF0480EEE6AE806FDE100EE39F07E
:10472000130EEE6AE806FDE14C904C920001AAEFF0
:104730000EF0000176510001771100017811D8B414
:1047400009D0000E0001761B000E0001771B800EC1
:104750000001781B73C067F074C068F075C069F021
:1047600076C06AF077C06BF078C06CF003EC16F09E
:1047700067C073F068C074F069C075F012006CC057
:1047800063F06DC064F06EC065F06FC066F070C01D
:1047900067F071C068F0B0EC20F00001D8B007D02D
:1047A0006CC06CF06DC06DF06EC06EF012006FC02A
:1047B0006CF070C06DF071C06EF012006FC063F0ED
:1047C00070C064F071C065F06CC066F06DC067F0D9
:1047D0006EC068F0B0EC20F00001D8B007D06CC01B
:1047E0006CF06DC06DF06EC06EF012006FC06CF0BA
:1047F00070C06DF071C06EF01200000E156E000EEC
:10480000146E8A96000E156E000E146E155010E18F
:10481000280E145CD8B0120085769C0E136ED70E4D
:10482000E82EFED7132EFCD700F0144A152AEED737
:104830001200000E1E6E1CAE06D01B6C1C1ED8B0E3
:104840001C2A010E1E6E1BC013F01CC014F0156A4A
:104850008E0E166E1EC017F014EC21F013C01BF064
:1048600014C01CF015C01DF01200EE0E0001AE6F5A
:10487000000E0001AF6FEE0E0001AC6F000E0001E4
:10488000AD6F0001B0830001B091000E0001B26F66
:10489000800E956E280E966E000E986E200E936E0A
:1048A0001200700EBD6E010EBF6E000EBE6E0A0EBF
:1048B000C06EE90EBC6E000EBB6E0E01CE930E01F3
:1048C000C683820E136E430E146E000E156E20EC1E
:1048D00026F054EC26F01200000162AF0FD060C049
:1048E00036F061C037F062C038F04EEC25F036C0CB
:1048F00060F037C061F038C062F0120060C060F054
:1049000061C061F062C062F0120001C003F002C039
:1049100004F0D89004320332D890043203320350AA
:10492000A16E01C003F0030E0316060E046ED890AC
:104930000336042EFCD70350A06E120001C003F012
:1049400002C004F0D89004320332D890043203320B
:104950000350A46E01C003F0030E0316060E046E8E
:10496000D8900336042EFCD70350A36E1200100E0D
:10497000D56E410ED66E150ED46EA00ED36ED350EA
:10498000D4CF13F0146A13C014F0136A13103C6EE2
:1049900014503D6E0E01CA9B56EC26F012002DEC11
:1049A00026F0CAEC1EF072EC25F035EC24F0DFECBA
:1049B00025F0D4EC25F0BEEC25F0C9EC25F051EC47
:1049C00024F0B7EC24F0EAEC25F01200200E156E6E
:1049D000370E166E320E91EC25F0210E156E000E7C
:1049E000166E320E91EC25F0220E156E000E166E2C
:1049F000320E91EC25F01200FF0E0116030E021686
:104A0000A8A80BD0060ED89001360236E82EFBD7A8
:104A10000250A76E01C0A6FF12000250A76E01C08F
:104A2000A6FF1200FF0E0116030E0216ACA80BD053
:104A3000060ED89001360236E82EFBD70250AB6E38
:104A400001C0AAFF12000250AB6E01C0AAFF120003
:104A500021502302F3CF25F0F4CF26F02150240279
:104A6000F350262622502302F350262625C021F09B
:104A700026C022F012000E01CE9339503A103B109E
:104A8000D8B4120001D812000500FA6E3950FD6E3C
:104A90003A50FE6E3B50FF6EFA50120036503710FF
:104AA0003810D8B406D0000E361A000E371A800E11
:104AB000381A36C036F037C037F038C038F0120038
:104AC0001BC013F01CC014F0156A8E0E166E000E7B
:104AD000176E14EC21F013C01BF014C01CF015C0AD
:104AE0001DF01200600E0E01D86F000E0E01DA6F7D
:104AF000000E0E01DC6F070E0E01DE6F000E0E01C0
:104B0000DD6F1200200E156EAF0E166ED60E91ECF4
:104B100025F0230E156E100E166ED60E91EC25F0B4
:104B20001200176E27EC26F01750F5EC25F0155003
:104B3000F5EC25F01650F5EC25F050EC26F01200BF
:104B4000156E000E146E3A0E156005D02F0E15640A
:104B500002D0010E146E14C013F013301200D3CF24
:104B600019F0D4CF1AF01A50156E1950176E15C0DF
:104B700018F017C013F018C014F01200800EA26EC7
:104B80005D0EA16E400EA06EAE503F0B4009AE6EA2
:104B90001200800EA56E5D0EA46E400EA36EAE5088
:104BA000CF0B1009AE6E12009C0EA86E5D0EA76EA4
:104BB000400EA66EAE50F30B0409AE6E12009C0EB2
:104BC000AC6E5D0EAB6E400EAA6EAE50FC0B0109D2
:104BD000AE6E1200080E9F6E900E9D6E240E9E6E9D
:104BE000670E9B6E000E9C6E1200146EFFEC25F09B
:104BF00014C092FF95B0FED7FFEC25F0120097CFBE
:104C000013F01F0E1316D8A4FAD795A41200F7D7E5
:104C10000E01CDABFDD79DA202D09D9E9D8E9950D9
:104C20001200978695A0FED795900E01CD919250D7
:104C30001200136E0E01CDA9FDD713C09AFF12000A
:104C400013C039F014C03AF015C03BF01200FFEC6D
:104C500025F09780FFEC25F01200F28A0E01BE834A
:104C60000E01BD831200E6EC24F082EC25F0120068
:104C700020EC1DF00CEC22F01200146E145019EC14
:104C800026F012001450D46E13C0D3FF1200B87E69
:104C90003FCD4C3F979A97881200F28EF28C12000B
:104CA00097841200D59E1200BD8E1200D58E120080
:044CB00012001200DC
:020000040020DA
:10000000FF0FFF0FFF0FFF0FFF0FFF0FFF0FFF0F80
:020000040030CA
:0C0000008CFFFFFF9FFFFFFFFFFFFFFFD3
:00000001FF
