:0400000046EF00F0D7
:100008004C82FACF05F0FBCF06F0E9CF07F0EACF34
:1000180008F0E1CF09F0E2CF0AF0D9CF0BF0DACF40
:100028000CF0F3CF0DF0F4CF0EF0F6CF0FF0F7CFC2
:1000380010F0F8CF11F0F5CF12F00E01C6A304D0DE
:100048000E01CEB39BEC21F012C0F5FF11C0F8FFF2
:1000580010C0F7FF0FC0F6FF0EC0F4FF0DC0F3FF8E
:100068000CC0DAFF0BC0D9FF0AC0E2FF09C0E1FFEC
:1000780008C0EAFF07C0E9FF06C0FBFF05C0FAFF9A
:080088004C921100B3EF20F0CF
:100F000000010000000A00000064000000E8030087
:100F10000010270000A086010040420F0080969834
:100F20000000E1F50500CA9A3B00803F0020410027
:100F3000C842007A44401C4650C34724744997185D
:100F40004BBCBE4C6B6E4E03155079AD60F34971CE
:100F500000803FCDCC3DD7233C12833AB7D138C671
:100F60002737388635C0D633CC2B32708930E7DB53
:100F70002EE53C1E42A20D6B703A20252E326620D3
:100F800020206B643A20252E32662020206B693A9F
:100F900020252E33662020207468726F74746C656F
:090FA0003A202569200A0D000029
:100FAA00E50E0101756F000E0101766F59EF0CF025
:100FBA00250E01018819D8B406D0010188519DEC8B
:100FCA0022F059EF0CF0000E0101786F000E776FD6
:100FDA00E3C0F6FFE4C0F7FF000EF86E0800F55014
:100FEA002E0AD8A438D00101788D0001E34BE42BF6
:100FFA00000E0101846F000E836F20D083C121F09F
:10100A0084C122F0000E246E0A0E236E88EC21F0B1
:10101A00E3C0F6FFE4C0F7FF000EF86E0800F550D3
:10102A002126000E2222D00E21240101836FFF0EF9
:10103A0022200101846F0001E34BE42BE3C0F6FF99
:10104A00E4C0F7FF000EF86E0800F55000EC22F03D
:10105A00D8A00CD0D3D7000E0101846F000E836F85
:10106A000101788903D0010178851BD0E3C0F6FF1E
:10107A00E4C0F7FF0001E34BE42B000EF86E080012
:10108A00F5CF88F101018851000AD8B41200640A28
:10109A00D8B407D0020AD8B4E6D70F0AD8A459EFB1
:1010AA000CF0070E01017815D8B40FD3010178A905
:1010BA0005D0000E0101846F060E836F75C1D9FF3A
:1010CA0076C1DAFFDECF85F1DECF86F1DDCF87F19B
:1010DA00030E01017527000E7623010187AF11D097
:1010EA0085C136F086C137F087C138F0AEEC21F001
:1010FA0036C085F137C086F138C087F1030E010189
:10110A007713000E01017A6F000E796F0101855184
:10111A000101861101018711D8B499D0820E00010C
:10112A00F06FFF0E0001F16F85C1F2F086C1F3F096
:10113A0087C1F4F088C1F5F0100E06D00001D890EE
:10114A00F533F433F333F233E82EF8D70001F251D2
:10115A000001F0250101796F000E0001F121010162
:10116A007A6F01017907D8A07A0779C121F07AC18B
:10117A0022F0000E246E030E236E88EC21F021C0AB
:10118A0079F122C07AF179C119F07AC11AF0000E08
:10119A001C6E0A0E1B6EC4EC1EF019C079F11AC03F
:1011AA007AF101017AAF04D001017907D8A07A0750
:1011BA000101795100086BEC0CF036C07BF137C0A5
:1011CA007CF138C07DF17BC127F07CC128F07DC15C
:1011DA0029F085C12AF086C12BF087C12CF02DECAD
:1011EA001CF027C07BF128C07CF129C07DF17BC1AE
:1011FA00C4F07CC1C5F07DC1C6F0000E0001C76F06
:10120A00800E0001C86F3F0E0001C96F20EC1DF06F
:10121A000001D8B005D001017907D8A07A0717D004
:10122A007BC1C4F07CC1C5F07DC1C6F0000E0001CF
:10123A00C76F200E0001C86F410E0001C96F20EC74
:10124A001DF00001D8A003D00101794B7A2B0101CE
:10125A0084BF08D0010184511DE10D0E0101835D97
:10126A00D8B018D085C1C8F086C1C9F087C1CAF004
:10127A0001018351BDEC11F036C0CBF037C0CCF080
:10128A0038C0CDF0F6EC12F0C8C085F1C9C086F1BD
:10129A00CAC087F101017ABF08D001017A512AE157
:1012AA000A0E0101795DD8B025D0010185510101ED
:1012BA00861101018711D8B463D085C1D4F086C1E3
:1012CA00D5F087C1D6F035EC18F00001D4510001F1
:1012DA00D5110001D6110001D711D8A451D00101AE
:1012EA007ABF4ED001017A5105E1020E0101795D02
:1012FA00D8A046D07BC1C4F07CC1C5F07DC1C6F080
:10130A00700E0001C76F890E0001C86F400E000100
:10131A00C96F20EC1DF00001D8B003D00101F70E0F
:10132A0002D00101F80E7927FF0E7A2301017951C3
:10133A006BEC0CF036C07BF137C07CF138C07DF124
:10134A0085C113F086C114F087C115F07BC116F070
:10135A007CC117F07DC118F0D7EC18F013C07FF1EB
:10136A0014C080F115C081F116C082F1000E01018E
:10137A00856F000E0101866F000E0101876F33D061
:10138A0085C1D4F086C1D5F087C1D6F035EC18F006
:10139A00D4C07FF1D5C080F1D6C081F1D7C082F127
:1013AA0085C1D4F086C1D5F087C1D6F07FC11BF0C4
:1013BA0080C11CF081C11DF082C11EF0B2EC1FF089
:1013CA001BC0D7F01CC0D8F01DC0D9F0E0EC1FF04C
:1013DA00D4C085F1D5C086F1D6C087F1000E0101CF
:1013EA007A6F000E796F010E0101886F0A0E0101F2
:1013FA008819D8B421D001018851040D010EF324B3
:10140A00F66E0F0EF420F76EF86A000EF822090045
:10141A00F55001017F5D0900F5500101805909006D
:10142A00F550010181590900F55001018259D8A0EE
:10143A0003D00101882BDAD7030E010177150001C9
:10144A00F06F000E010178150001F16F0001F051F3
:10145A000001F111D8B44DD02D0E9DEC22F049D0E7
:10146A007FC113F080C114F081C115F082C116F05A
:10147A0001018851040D010EF324F66E0F0EF420BB
:10148A00F76EF86A000EF8220900F5CF17F0090086
:10149A00F5CF18F00900F5CF19F00A00F5CF1AF0C8
:1014AA0006EC1FF013C07BF114C07CF115C07DF16E
:1014BA0016C07EF17BC120F07CC121F07DC122F0F3
:1014CA007EC123F00A0E246E000E256E000E266ED3
:1014DA00000E276E7FEC1FF020C07BF121C07CF14B
:1014EA0022C07DF123C07EF101017B51300F9DECBA
:1014FA0022F00101880701018829D8B408D0B0D7A1
:10150A00300E9DEC22F001017907D8A07A0701017B
:10151A007ABF07D001017A51F3E101017905D8B008
:10152A00EFD7010184BF0CD00101845105E1090EF6
:10153A000101835DD8A004D0080E0101886F02D092
:10154A0083C188F1010188510101835F000E010105
:10155A0088BFFF0E0101845B010188510101D8B4E3
:10156A0003D02E0E9DEC22F0010188516BEC0CF099
:10157A0036C072F137C073F138C074F185C12AF0F0
:10158A0086C12BF087C12CF072C127F073C128F0F5
:10159A0074C129F02DEC1CF027C0D4F028C0D5F076
:1015AA0029C0D6F035EC18F0D4C07FF1D5C080F14F
:1015BA00D6C081F1D7C082F173D07FC113F080C148
:1015CA0014F081C115F082C116F001018851040D91
:1015DA00010EF324F66E0F0EF420F76EF86A000E71
:1015EA00F8220900F5CF17F00900F5CF18F0090025
:1015FA00F5CF19F00A00F5CF1AF006EC1FF013C068
:10160A007BF114C07CF115C07DF116C07EF17BC15F
:10161A0020F07CC121F07DC122F07EC123F00A0EA8
:10162A00246E000E256E000E266E000E276E7FECCD
:10163A001FF020C07BF121C07CF122C07DF123C0C4
:10164A007EF101017B51300F9DEC22F07FC120F029
:10165A0080C121F081C122F082C123F001018851A9
:10166A00040D010EF324F66E0F0EF420F76EF86ADD
:10167A00000EF8220900F5CF24F00900F5CF25F075
:10168A000900F5CF26F00A00F5CF27F07FEC1FF00E
:10169A0020C07FF121C080F122C081F123C082F1F4
:1016AA000101880701018829D8B408D086D7300EED
:1016BA009DEC22F001018307D8A084070101835120
:1016CA0001018411D8B4F0D0F2D775C1D9FF76C11F
:1016DA00DAFFDECF7FF1DDCF80F10101000E80BF9E
:1016EA00FF0E816F826F020E01017527000E7623AD
:1016FA00010182AF0CD0030E010177130101821F91
:10170A00811F801F7F6D000E8023812382230101A8
:10171A00835101018411D8A40DD001017F51010127
:10172A0080110101811101018211D8A403D00101A4
:10173A00834B842B010E0101886F0A0E010188195F
:10174A00D8B421D001018851040D010EF324F66E9C
:10175A000F0EF420F76EF86A000EF8220900F55011
:10176A0001017F5D0900F550010180590900F5501A
:10177A00010181590900F55001018259D8A003D00D
:10178A000101882BDAD7800E010188BF7F0E000184
:10179A00F06F010183510101885D01018451800AC2
:1017AA000001F059D8B003D083C188F118D00101E3
:1017BA008451800A0001F06F010188510101835DA3
:1017CA00800E010188BF7F0E0001F059D8B007D002
:1017DA00010188510101836F846B83BF8407030E63
:1017EA00010177150001F06F000E01017815000163
:1017FA00F16F0001F0510001F111D8B44AD02D0E59
:10180A009DEC22F046D083C1F0F084C1F1F00001D2
:10181A00D890F037F1370001D890F037F137010E40
:10182A000001F025F66E0F0EF121F76EF86A000E30
:10183A00F8220900F5CF17F00900F5CF18F00900D2
:10184A00F5CF19F00A00F5CF1AF07FC113F080C165
:10185A0014F081C115F082C116F006EC1FF013C016
:10186A0020F014C021F015C022F016C023F00A0E91
:10187A00246E000E256E000E266E000E276E7FEC7B
:10188A001FF02050300F0101886F010188519DEC33
:10189A0022F001018307D8A0840701018329B3E15B
:1018AA0001018429D8A4AFD7E3C0F6FFE4C0F7FF4B
:1018BA000001E34BE42B000EF86E0800F5CF88F127
:1018CA0001018851D8B41200DDEF07F00001C46F9E
:1018DA000001C4AF16D10001C46D0001C451800AD1
:1018EA00120FD8A09DD0000E246E030E236E000E98
:1018FA001C6E0A0E1B6E000E166E640E156E00012B
:10190A00C451136E146A13BE140647EC1FF013C0B9
:10191A0019F014C01AF0C4EC1EF0090E1924216E35
:10192A00000E1A20226E88EC21F0500E2124F66E49
:10193A000F0E2220F76EF86A000EF8220900F5CF82
:10194A002AF00900F5CF2BF00A00F5CF2CF0000E93
:10195A001C6E640E1B6E0001C451196E1A6A19BE00
:10196A001A06C4EC1EF0120E1924216E000E1A205B
:10197A00226E000E246E030E236E88EC21F0500EA8
:10198A002124F66E0F0E2220F76EF86A000EF82256
:10199A000900F5CF27F00900F5CF28F00A00F5CFA6
:1019AA0029F02DEC1CF027C0C1F028C0C2F029C0D4
:1019BA00C3F0C1C027F0C2C028F0C3C029F0000E8E
:1019CA00246E030E236E000E166E0A0E156E0001AB
:1019DA00C451136E146A13BE140647EC1FF013C0E9
:1019EA0021F014C022F088EC21F0500E2124F66E6A
:1019FA000F0E2220F76EF86A000EF8220900F5CFC2
:101A0A002AF00900F5CF2BF00A00F5CF2CF02DECC7
:101A1A001CF027C036F028C037F029C038F0120071
:101A2A000001C451800A750FD8A055D0000E1C6E53
:101A3A000A0E1B6E0001C451196E1A6A19BE1A06E3
:101A4A00C4EC1EF0090E1924216E000E1A20226E13
:101A5A00000E246E030E236E88EC21F0500E212412
:101A6A00F66E0F0E2220F76EF86A000EF8220900B1
:101A7A00F5CF27F00900F5CF28F00A00F5CF29F0B5
:101A8A00000E246E030E236E000E166E0A0E156EDD
:101A9A000001C451136E146A13BE140647EC1FF0FA
:101AAA0013C021F014C022F088EC21F0500E21243A
:101ABA00F66E0F0E2220F76EF86A000EF822090061
:101ACA00F5CF2AF00900F5CF2BF00A00F5CF2CF05C
:101ADA002DEC1CF09ED70001C451030D500EF324C7
:101AEA00F66E0F0EF420F76EF86A000EF82209005F
:101AFA00F5CF36F00900F5CF37F00A00F5CF38F008
:101B0A0012000001C451800A120FD8A09DD0000E05
:101B1A00246E030E236E000E1C6E0A0E1B6E000E40
:101B2A00166E640E156E0001C451136E146A13BE4C
:101B3A00140647EC1FF013C019F014C01AF0C4ECD5
:101B4A001EF0090E1924216E000E1A20226E88EC4E
:101B5A0021F0290E2124F66E0F0E2220F76EF86A64
:101B6A00000EF8220900F5CF2AF00900F5CF2BF074
:101B7A000A00F5CF2CF0000E1C6E640E1B6E0001DD
:101B8A00C451196E1A6A19BE1A06C4EC1EF0120E56
:101B9A001924216E000E1A20226E000E246E030EE6
:101BAA00236E88EC21F0290E2124F66E0F0E2220D6
:101BBA00F76EF86A000EF8220900F5CF27F009003F
:101BCA00F5CF28F00A00F5CF29F02DEC1CF027C03C
:101BDA00C1F028C0C2F029C0C3F0C1C027F0C2C0FA
:101BEA0028F0C3C029F0000E246E030E236E000EE7
:101BFA00166E0A0E156E0001C451136E146A13BED6
:101C0A00140647EC1FF013C021F014C022F088EC30
:101C1A0021F0290E2124F66E0F0E2220F76EF86AA3
:101C2A00000EF8220900F5CF2AF00900F5CF2BF0B3
:101C3A000A00F5CF2CF02DEC1CF027C036F028C096
:101C4A0037F029C038F012000001C451800A750F1C
:101C5A00D8A055D0000E1C6E0A0E1B6E0001C4518E
:101C6A00196E1A6A19BE1A06C4EC1EF0090E192456
:101C7A00216E000E1A20226E000E246E030E236EB1
:101C8A0088EC21F0290E2124F66E0F0E2220F76E21
:101C9A00F86A000EF8220900F5CF27F00900F5CFFF
:101CAA0028F00A00F5CF29F0000E246E030E236EE9
:101CBA00000E166E0A0E156E0001C451136E146AD8
:101CCA0013BE140647EC1FF013C021F014C022F013
:101CDA0088EC21F0290E2124F66E0F0E2220F76ED1
:101CEA00F86A000EF8220900F5CF2AF00900F5CFAC
:101CFA002BF00A00F5CF2CF02DEC1CF09ED700013A
:101D0A00C451030D290EF324F66E0F0EF420F76E5C
:101D1A00F86A000EF8220900F5CF36F00900F5CF6F
:101D2A0037F00A00F5CF38F01200E6C0C1F0E7C07C
:101D3A00C2F0E8C0C3F0CCEC20F0C1C0D0F0C2C001
:101D4A00D1F0C3C0D2F0E3C0C1F0E4C0C2F0E5C034
:101D5A00C3F0CCEC20F0C1C0CDF0C2C0CEF0C3C0FD
:101D6A00CFF006EC20F0CDC0D4F0CEC0D5F0CFC075
:101D7A00D6F0E6C0C1F0E7C0C2F0E8C0C3F0CCECD0
:101D8A0020F0C1C0D0F0C2C0D1F0C3C0D2F0E3C0CD
:101D9A00C1F0E4C0C2F0E5C0C3F0CCEC20F0C1C091
:101DAA00CDF0C2C0CEF0C3C0CFF025EC20F0CDC03C
:101DBA00D7F0CEC0D8F0CFC0D9F08FEC17F0D4C08E
:101DCA00F5F0D5C0F6F0D6C0F7F0F5C027F0F6C0AA
:101DDA0028F0F7C029F0F5C02AF0F6C02BF0F7C0BA
:101DEA002CF02DEC1CF027C0F2F028C0F3F029C02B
:101DFA00F4F0230E0001CB6F230E0001CC6F3E0ED0
:101E0A000001CD6F730E2A6E3E0E2B6EBD0E2C6E28
:101E1A00F2C027F0F3C028F0F4C029F02DEC1CF032
:101E2A0027C0C8F028C0C9F029C0CAF0F6EC12F0E1
:101E3A00C8C0E9F0C9C0EAF0CAC0EBF0BE0E0001A2
:101E4A00CB6FA70E0001CC6FBE0E0001CD6FF2C0A2
:101E5A002AF0F3C02BF0F4C02CF0E9C027F0EAC056
:101E6A0028F0EBC029F02DEC1CF027C0C8F028C0E0
:101E7A00C9F029C0CAF0F6EC12F0C8C0ECF0C9C02B
:101E8A00EDF0CAC0EEF0F2C02AF0F3C02BF0F4C0B5
:101E9A002CF0ECC027F0EDC028F0EEC029F02DECB4
:101EAA001CF027C0EFF028C0F0F029C0F1F0F5C00F
:101EBA002AF0F6C02BF0F7C02CF0EFC027F0F0C0E4
:101ECA0028F0F1C029F02DEC1CF027C0C8F028C07A
:101EDA00C9F029C0CAF0F5C0CBF0F6C0CCF0F7C003
:101EEA00CDF0F6EC12F0C8C0F8F0C9C0F9F0CAC0DB
:101EFA00FAF0E3C0C1F0E4C0C2F0E5C0C3F0CCEC34
:101F0A0020F0C1C0C4F0C2C0C5F0C3C0C6F0E6C06C
:101F1A00C1F0E7C0C2F0E8C0C3F0CCEC20F0C1C009
:101F2A00C7F0C2C0C8F0C3C0C9F020EC1DF0000160
:101F3A00D8B01FD0F8C036F0F9C037F0FAC038F080
:101F4A00AEEC21F036C0C8F037C0C9F038C0CAF0CC
:101F5A00100E0001CB6FC90E0001CC6F3F0E0001BD
:101F6A00CD6FF6EC12F0C8C0F8F0C9C0F9F0CAC0DB
:101F7A00FAF00001E5AF1FD0F8C036F0F9C037F02B
:101F8A00FAC038F0AEEC21F036C0C8F037C0C9F05C
:101F9A0038C0CAF0100E0001CB6F490E0001CC6F99
:101FAA00400E0001CD6FF6EC12F0C8C0F8F0C9C0BF
:101FBA00F9F0CAC0FAF00001E8AF0ED0F8C036F066
:101FCA00F9C037F0FAC038F0AEEC21F036C0F8F0BC
:101FDA0037C0F9F038C0FAF0000E2A6E340E2B6EB4
:101FEA00430E2C6EF8C027F0F9C028F0FAC029F089
:101FFA002DEC1CF027C0D4F028C0D5F029C0D6F0AB
:10200A00100E0001D76F490E0001D86F400E000173
:10201A00D96F8FEC17F0D4C0F8F0D5C0F9F0D6C05C
:10202A00FAF0F8C036F0F9C037F0FAC038F0AEEC82
:10203A0021F036C0C8F037C0C9F038C0CAF0000E67
:10204A000001CB6FB40E0001CC6F420E0001CD6FC0
:10205A00F6EC12F0C8C0F8F0C9C0F9F0CAC0FAF03C
:10206A00F8C0E3F0F9C0E4F0FAC0E5F01200000E9F
:10207A0001018B6F000E8A6F44EC20F02FEC21F0E7
:10208A00AAEC22F093EC22F015EC16F026EC1BF0E9
:10209A00899806D098EC22F0A7EC1CF02BEC15F0EE
:1020AA000001BA51D8B4F6D798EC22F0A7EC1CF08C
:1020BA002BEC15F0660E0001EF6FB60E0001F06F03
:1020CA00C00E0001F16F000E0001F26F000E000158
:1020DA00F36F000E0001F46F000E0001F56F000EA1
:1020EA000001F66F000E0001F76F97EC1AF00E016F
:1020FA00CDABDFD068EC22F00101896F9FD0A6C07A
:10210A00C8F0A7C0C9F0A8C0CAF0D70E0001CB6FAB
:10211A00230E0001CC6F3C0E0001CD6FF6EC12F0DD
:10212A00C8C0A6F0C9C0A7F0CAC0A8F0A4D0A6C06B
:10213A00D4F0A7C0D5F0A8C0D6F0D70E0001D76F4B
:10214A00230E0001D86F3C0E0001D96FE0EC1FF09E
:10215A00D4C0A6F0D5C0A7F0D6C0A8F08CD0A0C035
:10216A00C8F0A1C0C9F0A2C0CAF0CD0E0001CB6F61
:10217A004C0E0001CC6F3D0E0001CD6FF6EC12F053
:10218A00C8C0A0F0C9C0A1F0CAC0A2F074D0A0C053
:10219A00D4F0A1C0D5F0A2C0D6F0CD0E0001D76F01
:1021AA004C0E0001D86F3D0E0001D96FE0EC1FF014
:1021BA00D4C0A0F0D5C0A1F0D6C0A2F05CD0A3C014
:1021CA00C8F0A4C0C9F0A5C0CAF0120E0001CB6FB6
:1021DA00830E0001CC6F3A0E0001CD6FF6EC12F0BF
:1021EA00C8C0A3F0C9C0A4F0CAC0A5F044D0A3C017
:1021FA00D4F0A4C0D5F0A5C0D6F0120E0001D76F56
:10220A00830E0001D86F3A0E0001D96FE0EC1FF07F
:10221A00D4C0A3F0D5C0A4F0D6C0A5F02CD0020E2D
:10222A000001A927000E04D00001FE0EA927FF0E07
:10223A00AA2321D0010E01018A1B1DD00101895157
:10224A00610AD8B474D7050AD8B4D1D7010AD8B468
:10225A00B6D7020AD8B4E8D7160AD8B450D7020AB1
:10226A00D8B495D7070AD8B4DAD7030AD8B477D737
:10227A000D0AD8B4DFD7770E0001E36F0F0E000105
:10228A00E46FA6C0E5F0A7C0E6F0A8C0E7F0A0C0DA
:10229A00E8F0A1C0E9F0A2C0EAF0A3C0EBF0A4C044
:1022AA00ECF0A5C0EDF0A9C0EEF0AAC0EFF0D5ECB5
:1022BA0007F001018A5101018B11D8B457D06AC0C5
:1022CA0027F06BC028F06CC029F0000E2A6EC80EE9
:1022DA002B6E420E2C6E2DEC1CF027C08CF128C000
:1022EA008DF129C08EF1AA0E79EC22F073C0D4F0D8
:1022FA0074C0D5F075C0D6F035EC18F00001D5C021
:10230A00D4F00001D56B0001D4BFD5690001D451C6
:10231A0079EC22F073C0D4F074C0D5F075C0D6F051
:10232A0035EC18F00001D45179EC22F08CC1D4F0CC
:10233A008DC1D5F08EC1D6F035EC18F00001D5C0AC
:10234A00D4F00001D56B0001D4BFD5690001D45186
:10235A0079EC22F08CC1D4F08DC1D5F08EC1D6F0C3
:10236A0035EC18F00001D45179EC22F084789CD62F
:10237A000001C76F6D0E0001C765A8D0000E246E5C
:10238A00030E236E000E1C6E0A0E1B6E000E166ED6
:10239A00640E156EC7C013F0146A47EC1FF013C021
:1023AA0019F014C01AF0C4EC1EF0090E1924216E9B
:1023BA00000E1A20226E88EC21F0500E2124F66EAF
:1023CA000F0E2220F76EF86A000EF8220900F5CFE8
:1023DA002AF00900F5CF2BF00A00F5CF2CF0000EF9
:1023EA001C6E640E1B6EC7C019F01A6AC4EC1EF08C
:1023FA00120E1924216E000E1A20226E000E246E6F
:10240A00030E236E88EC21F0500E2124F66E0F0E77
:10241A002220F76EF86A000EF8220900F5CF27F09D
:10242A000900F5CF28F00A00F5CF29F02DEC1CF0B1
:10243A0027C0C4F028C0C5F029C0C6F0000E246E1B
:10244A00030E236E000E166E0A0E156EC7C013F029
:10245A00146A47EC1FF013C021F014C022F088EC74
:10246A0021F0500E2124F66E0F0E2220F76EF86A24
:10247A00000EF8220900F5CF2AF00900F5CF2BF05B
:10248A000A00F5CF2CF0C4C027F0C5C028F0C6C09A
:10249A0029F02DEC1CF027C0C1F028C0C2F029C0D9
:1024AA00C3F0C1C027F0C2C028F0C3C029F0000E93
:1024BA002A6E000E2B6E3F0E2C6E2DEC1CF027C0E0
:1024CA0036F028C037F029C038F012000A0E000191
:1024DA00C76563D0000E246E030E236E000E166EBF
:1024EA000A0E156EC7C013F0146A47EC1FF013C02A
:1024FA0021F014C022F088EC21F0500E2124F66E4F
:10250A000F0E2220F76EF86A000EF8220900F5CFA6
:10251A002AF00900F5CF2BF00A00F5CF2CF0000EB7
:10252A001C6E0A0E1B6EC7C019F01A6AC4EC1EF0A4
:10253A00090E1924216E000E1A20226E000E246E36
:10254A00030E236E88EC21F0500E2124F66E0F0E36
:10255A002220F76EF86A000EF8220900F5CF27F05C
:10256A000900F5CF28F00A00F5CF29F02DEC1CF070
:10257A0027C0C4F028C0C5F029C0C6F0C4C027F0DF
:10258A00C5C028F0C6C029F0000E2A6E000E2B6EB8
:10259A003F0E2C6E2DEC1CF092D70001C751030D93
:1025AA00500EF324F66E0F0EF420F76EF86A000E42
:1025BA00F8220900F5CF27F00900F5CF28F00A0024
:1025CA00F5CF29F0000E2A6E000E2B6E3F0E2C6EF0
:1025DA002DEC1CF027C036F028C037F029C038F09F
:1025EA001200CAC0CEF00001CF6BD06B0001C93512
:1025FA000001CE3701E3CF810001CE510001D36F34
:10260A00CDC0CEF00001CF6BD06B0001CC350001FC
:10261A00CE3701E3CF810001CE510001D26F000114
:10262A00D3510001D8B411D00001D2510001D35DB9
:10263A00D8B012D00001D35100080001D225000100
:10264A00CE6F180E0001CE6507D0CBC0C8F0CCC043
:10265A00C9F0CDC0CAF012000001D2510001D8B4AD
:10266A0011D00001D3510001D25DD8B012D00001BF
:10267A00D25100080001D3250001CE6F180E0001C7
:10268A00CE6507D0C8C0C8F0C9C0C9F0CAC0CAF070
:10269A001200060E0001D16F0001CAAF02D000017C
:1026AA00D18F0001CDAF02D00001D18D0001C98FB9
:1026BA00FF0E0001C817FF0E0001C917000E000126
:1026CA00CA170001CC8FFF0E0001CB17FF0E0001C5
:1026DA00CC17000E0001CD170001D2510001D35DC5
:1026EA00D8B025D00001D890CB37CC37CD370001F0
:1026FA00D2070001D3510001D219D8B411D0000178
:10270A00D107D1C0CEF0070E0001CE17D8B408D039
:10271A00E9D70001D890CA33C933C8330001D32B93
:10272A000001D2510001D319D8B42BD0F2D700013D
:10273A00D3510001D25DD8B024D00001D890C83757
:10274A00C937CA370001D3070001D3510001D21992
:10275A00D8B411D00001D107D1C0CEF0070E0001C4
:10276A00CE17D8B408D0E9D70001D890CD33CC33EE
:10277A00CB330001D22B0001D2510001D319D8A4C6
:10278A00F3D70001D1AF12D0FF0E0001C81BFF0E14
:10279A000001C91BFF0E0001CA1B010E0001C82758
:1027AA00000E0001C923000E0001CA230001D1ADA9
:1027BA0012D0FF0E0001CB1BFF0E0001CC1BFF0E37
:1027CA000001CD1B010E0001CB27000E0001CC2316
:1027DA00000E0001CD23000E0001D16F0001C85187
:1027EA000001CB270001C9510001CC230001CA51C5
:1027FA000001CD230001CDAF15D0FF0E0001CB1B88
:10280A00FF0E0001CC1BFF0E0001CD1B010E0001C3
:10281A00CB27000E0001CC23000E0001CD23010EB0
:10282A000001D16FCBC013F0CCC014F0CDC015F0AD
:10283A00D3C016F0D1C017F084EC1DF013C0C8F055
:10284A0014C0C9F015C0CAF01200000120EE09F048
:10285A00E351D926E451DA22DECFC8F0DECFC9F03F
:10286A00DDCFCAF0E3C0D9FFE4C0DAFFDECFCBF098
:10287A00DECFCCF0DDCFCDF0F6EC12F0000120EE89
:10288A0009F0E351D926E451DA22C8C0DEFFC9C0F3
:10289A00DEFFCAC0DEFF000120EE09F0E351D926AF
:1028AA00E451DA22DECFD4F0DECFD5F0DDCFD6F098
:1028BA00000120EE03F0E351D926E451DA22DECFFB
:1028CA00CBF0DECFCCF0DDCFCDF0000120EE09F069
:1028DA00E351D926E451DA22DECFC8F0DECFC9F0BF
:1028EA00DDCFCAF0F6EC12F0C8C0D7F0C9C0D8F0F4
:1028FA00CAC0D9F08FEC17F0000120EE0CF0E351BA
:10290A00D926E451DA22D4C0DEFFD5C0DEFFD6C014
:10291A00DEFF000120EE0CF0E351D926E451DA2261
:10292A00DECF2AF0DECF2BF0DDCF2CF0E5C0CBF0E6
:10293A00E6C0CCF0E7C0CDF0000120EE06F0E3518E
:10294A00D926E451DA22DECF36F0DECF37F0DDCFFA
:10295A0038F0AEEC21F036C0C8F037C0C9F038C044
:10296A00CAF0F6EC12F0C8C027F0C9C028F0CAC0F5
:10297A0029F02DEC1CF027C0E8F028C0E9F029C0A6
:10298A00EAF0E8C0C8F0E9C0C9F0EAC0CAF000013C
:10299A0020EE06F0E351D926E451DA22DECFCBF05D
:1029AA00DECFCCF0DDCFCDF0F6EC12F0000120EE58
:1029BA0006F0E351D926E451DA22C8C0DEFFC9C0C5
:1029CA00DEFFCAC0DEFF000E0001CB6F800E0001E1
:1029DA00CC6F3F0E0001CD6F000120EE0CF0E351E9
:1029EA00D926E451DA22DECF36F0DECF37F0DDCF5A
:1029FA0038F0AEEC21F036C0C8F037C0C9F038C0A4
:102A0A00CAF0F6EC12F0C8C027F0C9C028F0CAC054
:102A1A0029F0000120EE09F0E351D926E451DA2227
:102A2A00DECF2AF0DECF2BF0DDCF2CF02DEC1CF020
:102A3A00000120EE09F0E351D926E451DA2227C039
:102A4A00DEFF28C0DEFF29C0DEFF1200AFEC22F055
:102A5A000FEC22F013C07EF114C07FF17EC11BF08F
:102A6A007FC11CF0C0EC21F01BC027F01CC028F06D
:102A7A001DC029F0F50E2A6E320E2B6E340E2C6E06
:102A8A002DEC1CF027C072F128C073F129C074F133
:102A9A0079C036F07AC037F07BC038F0AEEC21F05E
:102AAA0036C075F137C076F138C077F176C0E6F0F6
:102ABA0077C0E7F078C0E8F075C1E3F076C1E4F0DA
:102ACA0077C1E5F09AEC0EF0E3C078F1E4C079F151
:102ADA00E5C07AF1CD0E2A6E4C0E2B6E3F0E2C6E8F
:102AEA0067C027F068C028F069C029F02DEC1CF0F7
:102AFA0027C0C8F028C0C9F029C0CAF0CD0E2A6E76
:102B0A004C0E2B6E3E0E2C6E78C127F079C128F040
:102B1A007AC129F02DEC1CF027C0CBF028C0CCF0EC
:102B2A0029C0CDF0F6EC12F0C8C067F0C9C068F051
:102B3A00CAC069F072C12AF073C12BF074C12CF0BB
:102B4A0073C027F074C028F075C029F02DEC1CF072
:102B5A0027C07BF128C07CF129C07DF16AC0D4F07E
:102B6A006BC0D5F06CC0D6F05C0E2A6E8F0E2B6E41
:102B7A003C0E2C6E7BC127F07CC128F07DC129F068
:102B8A002DEC1CF027C0D7F028C0D8F029C0D9F006
:102B9A00E0EC1FF0D4C06AF0D5C06BF0D6C06CF080
:102BAA00130E0001B96533D0000E0001B96F290E6A
:102BBA002A6E7C0E2B6E3F0E2C6E6AC027F06BC0FD
:102BCA0028F06CC029F02DEC1CF027C0C8F028C0F2
:102BDA00C9F029C0CAF0C30E2A6E750E2B6E3C0EC0
:102BEA002C6E67C027F068C028F069C029F02DEC68
:102BFA001CF027C0CBF028C0CCF029C0CDF0F6ECF1
:102C0A0012F0C8C06AF0C9C06BF0CAC06CF0000EFE
:102C1A00146E000E136EA2EC22F0B3EC22F0120036
:102C2A007CC05DF17DC05EF17EC05FF1000E0101E6
:102C3A00606F800E0101616F3F0E0101626F120E1B
:102C4A000101576F830E0101586F3A0E0101596F46
:102C5A009A0E01015A6F990E01015B6F3E0E010136
:102C6A005C6F79C04EF17AC04FF17BC050F1000E13
:102C7A000101516F800E0101526F3F0E0101536F26
:102C8A00120E0101486F830E0101496F3A0E0101CC
:102C9A004A6F9A0E01014B6F990E01014C6F3E0E5D
:102CAA0001014D6F76C03FF177C040F178C041F124
:102CBA00000E0101426F800E0101436F3F0E0101B8
:102CCA00446FC30E0101396F750E01013A6F3C0E54
:102CDA0001013B6F9A0E01013C6F990E01013D6F94
:102CEA003E0E01013E6F73C030F174C031F175C000
:102CFA0032F1000E0101336F800E0101346F3F0E75
:102D0A000101356F5C0E01012A6F8F0E01012B6FD5
:102D1A003D0E01012C6F000E01012D6F400E0101C5
:102D2A002E6F3F0E01012F6F70C021F171C022F189
:102D3A0072C023F1000E0101246F800E0101256F7C
:102D4A003F0E0101266F5C0E01011B6F8F0E010100
:102D5A001C6F3D0E01011D6F000E01011E6F400E1A
:102D6A0001011F6F3F0E0101206F6DC012F16EC08D
:102D7A0013F16FC014F1000E0101156F800E0101ED
:102D8A00166F3F0E0101176F5C0E01010C6F8F0E5B
:102D9A0001010D6F3D0E01010E6F000E01010F6F53
:102DAA00400E0101106F3F0E0101116F12006AC03F
:102DBA0036F06BC037F06CC038F0AEEC21F036C09C
:102DCA00C8F037C0C9F038C0CAF0E3C0CBF0E4C0DD
:102DDA00CCF0E5C0CDF0F6EC12F0C8C0ECF0C9C0FA
:102DEA00EDF0CAC0EEF0ECC036F0EDC037F0EEC040
:102DFA0038F0AEEC21F036C0C8F037C0C9F038C0A0
:102E0A00CAF09DC0CBF09EC0CCF09FC0CDF0F6ECCE
:102E1A0012F0C8C0E6F0C9C0E7F0CAC0E8F09AC02C
:102E2A00C8F09BC0C9F09CC0CAF0ECC0CBF0EDC0A2
:102E3A00CCF0EEC0CDF0F6EC12F0C8C09AF0C9C0E2
:102E4A009BF0CAC09CF09AC02AF09BC02BF09CC091
:102E5A002CF0A3C027F0A4C028F0A5C029F02DECBF
:102E6A001CF027C0CBF028C0CCF029C0CDF0ECC0B4
:102E7A002AF0EDC02BF0EEC02CF0A6C027F0A7C0B8
:102E8A0028F0A8C029F02DEC1CF027C0C8F028C0F3
:102E9A00C9F029C0CAF0F6EC12F0C8C0E9F0C9C0FE
:102EAA00EAF0CAC0EBF0E6C02AF0E7C02BF0E8C0AF
:102EBA002CF0A0C027F0A1C028F0A2C029F02DEC68
:102ECA001CF027C036F028C037F029C038F0AEEC25
:102EDA0021F036C0CBF037C0CCF038C0CDF0E9C015
:102EEA00C8F0EAC0C9F0EBC0CAF0F6EC12F0C8C0EC
:102EFA00D4F0C9C0D5F0CAC0D6F035EC18F0D4C0A9
:102F0A00B5F0D5C0B6F0ECC09DF0EDC09EF0EEC0B5
:102F1A009FF01200D6C0DAF00001DB6BDC6B000117
:102F2A00D5350001DA3701E3DB810001DA5100010E
:102F3A00E16F0001E151D8A40AD0000E0001D46F5C
:102F4A00000E0001D56F000E0001D66F1200D9C025
:102F5A00DAF00001DB6BDC6B0001D8350001DA37EF
:102F6A0001E3DB810001DA510001E26F0001E25165
:102F7A00D8A40AD0000E0001D46F000E0001D56F4C
:102F8A00000E0001D66F1200000E0001DE6F000E67
:102F9A000001DF6F000E0001E06F0001E251890FAE
:102FAA000001E15FD6C0E2F00001D9510001E21B45
:102FBA00800E0001E2170001D58FFF0E0001D41721
:102FCA00FF0E0001D517000E0001D6170001D88F99
:102FDA00FF0E0001D717FF0E0001D817000E0001DF
:102FEA00D917180E0001DD6F0001D890DE37DF37E0
:102FFA00E0370001D7510001D45D0001D85100012A
:10300A00D5590001D9510001D659D8A00ED00001D6
:10301A00D7510001D45F0001D8510001D55B0001EE
:10302A00D9510001D65B0001DE810001D890D43766
:10303A00D537D6370001DD2FD7D7DEC013F0DFC072
:10304A0014F0E0C015F0E1C016F0E2C017F084EC0D
:10305A001DF013C0D4F014C0D5F015C0D6F012007C
:10306A00D6C0D8F00001D96BDA6B0001D535000162
:10307A00D83701E3D9810001D8510001E26F00017C
:10308A00E251D8A40AD0000E0001D46F000ED56F09
:10309A00000ED66F000ED76F1200170E0001D86F00
:1030AA00D4C0D9F0D5C0DAF0D6C0DBF00001D829F7
:1030BA000001DC6F05D00001D890DB33DA33D93355
:1030CA000001DC2FF8D70001D9510001DD6F0001A2
:1030DA00D58FFF0E0001D417FF0E0001D517000E81
:1030EA000001D6170001D4510001DE6F0001D5514D
:1030FA000001DF6F0001D6510001E06F0001E16BB2
:10310A008E0E0001E25F0001E2AF1AD00001E25127
:10311A00800A8F0FD8B00AD0000E0001D46F000EBB
:10312A00D56F000ED66F000ED76F12000001D8902F
:10313A00E133E033DF33DE330001E23FF7D71BD060
:10314A00170E0001E26512D0000E0001D46F000EC6
:10315A00D56F000ED66F000ED76F12000001D890FF
:10316A00DE37DF37E037E1370001E2070001E251DD
:10317A000001D8A4F3D70001DD510001D8B409D069
:10318A000001E11FE01FDF1FDE6D000EDF23E023D9
:10319A00E123DEC0D4F0DFC0D5F0E0C0D6F0E1C054
:1031AA00D7F0120015C019F01A6A1B6A14341936BE
:1031BA0001E31A801950216E2150D8A409D0000EBB
:1031CA00136E000E146E000E156E000E166E1200AF
:1031DA0018C019F01A6A1B6A1734193601E31A80E3
:1031EA001950206E2050D8A409D0000E136E000E7C
:1031FA00146E000E156E000E166E1200148EFF0E5F
:10320A001316FF0E1416000E1516178EFF0E16163D
:10321A00FF0E1716000E1816000E1C6E000E1D6EFD
:10322A00000E1E6E000E1F6E7F0E215E2050980F3C
:10323A00215E180E206ED8901C361D361E361F369B
:10324A001650135C1750145818501558D8A007D0A8
:10325A001650135E1750145A1850155A1C80D890DD
:10326A00133614361536202EE6D721AE16D0215045
:10327A00800A970FD8B009D0000E136E000E146E94
:10328A00000E156E000E166E1200D8901F321E32F6
:10329A001D321C32213EF9D715D0170E21640FD0EA
:1032AA00000E136E000E146E000E156E000E166ED2
:1032BA001200D8901C361D361E361F3621062150A4
:1032CA00D8A4F7D71CC013F01DC014F01EC015F007
:1032DA001FC016F01200153416341E6E1E50D8A4E4
:1032EA0009D0000E136E000E146E000E156E000E3D
:1032FA00166E1200183419341D6E1D50D8A409D048
:10330A00000E136E000E146E000E156E000E166E71
:10331A001200158EFF0E1316FF0E1416FF0E151649
:10332A00000E1616188EFF0E1616FF0E1716FF0E33
:10333A001816000E1916000E196E000E1A6E000EDF
:10334A001B6E000E1C6E7F0E1E5E1D50A00F1E5EB1
:10335A00200E1D6ED89019361A361B361C3616509A
:10336A00135C175014581850155819501658D8A0ED
:10337A0009D01650135E1750145A1850155A19507E
:10338A00165A1980D89013361436153616361D2E4D
:10339A00E1D71EAE16D01E50800A9F0FD8B009D0B2
:1033AA00000E136E000E146E000E156E000E166ED1
:1033BA001200D8901C321B321A3219321E3EF9D72B
:1033CA0015D01F0E1E640FD0000E136E000E146E61
:1033DA00000E156E000E166E1200D89019361A36A7
:1033EA001B361C361E061E50D8A4F7D719C013F078
:1033FA001AC014F01BC015F01CC016F01200A80E5B
:10340A00156EE70E166E000E176E060E186E320E49
:10341A00DBEC1DF00001E8510001E46FE36B0001F1
:10342A00E7510001E56FE66B0001E3510001E51188
:10343A001B6E0001E4510001E6111C6E60EC20F0E5
:10344A001BC0D4F01CC0D5F01DC0D6F0000E000180
:10345A00D76F800E0001D86F410E0001D96F8FEC33
:10346A0017F0D4C07CF0D5C07DF0D6C07EF0000144
:10347A00EA510001E46FE36B0001E9510001E56FD5
:10348A00E66B0001E3510001E5111B6E0001E451F6
:10349A000001E6111C6E60EC20F01BC0D4F01CC0C9
:1034AA00D5F01DC0D6F0000E0001D76F800E0001C6
:1034BA00D86F410E0001D96F8FEC17F0D4C079F0A4
:1034CA00D5C07AF0D6C07BF00001EC510001E46F60
:1034DA00E36B0001EB510001E56FE66B0001E3517C
:1034EA000001E5111B6E0001E4510001E6111C6E9A
:1034FA0060EC20F01BC0D4F01CC0D5F01DC0D6F083
:10350A00000E0001D76F800E0001D86F410E000136
:10351A00D96F8FEC17F0D4C076F0D5C077F0D6C04B
:10352A0078F01200EFC0E3F0F0C0E4F0F1C0E5F08B
:10353A00DCEC16F0F2C013F0F3C014F0F4C015F08E
:10354A00B6EC22F0F5C013F0F6C014F0F7C015F08F
:10355A00B5EC22F0B5C0F8F0B6C0F9F00001F81FDA
:10356A00F91FF84BF92B0001A9510001F825446E07
:10357A000001AA510001F921456E0001B55100016F
:10358A00A925426E0001B6510001AA21436E00012D
:10359A00B5510001A9250001AF6F0001B651000124
:1035AA00AA210001B06FB5C0F8F0B6C0F9F0000169
:1035BA00F81FF91FF84BF92B0001A9510001F82552
:1035CA000001AD6F0001AA510001F9210001AE6F9F
:1035DA0045AE09D0000E456E000E446E000E000185
:1035EA00AE6F000EAD6F45BE0FD02D0E445C010EBE
:1035FA004558D8A009D0010E456E2C0E446E010E16
:10360A000001AE6F2C0EAD6F43AE09D0000E436EB3
:10361A00000E426E000E0001B06F000EAF6F43BE87
:10362A0012002D0E425C010E4358D8A01200010E62
:10363A00436E2C0E426E010E0001B06F2C0EAF6F5E
:10364A001200000E0001A66F000E0001A76F000E07
:10365A000001A86F000E0001A36F000E0001A46F05
:10366A00000E0001A56F000E0001A06F000E000100
:10367A00A16F000E0001A26F000E00019D6F000EE7
:10368A0000019E6F000E00019F6F000E00019A6FED
:10369A00000E00019B6F000E00019C6F000E0001DE
:1036AA00976F000E0001986F000E0001996F000ECF
:1036BA000001946F000E0001956F000E0001966FD5
:1036CA00000E0001916F000E0001926F000E0001C2
:1036DA00936F000E00018E6F000E00018F6F000EB7
:1036EA000001906F000E00018B6F000E00018C6FBD
:1036FA00000E00018D6F000E0001886F000E0001A0
:10370A00896F000E00018A6F000E0001856F000E9E
:10371A000001866F000E0001876F000E0001826FA4
:10372A00000E0001836F000E0001846F000E00017D
:10373A007F6F000E0001806F000E0001816F000E86
:10374A000101096F000E01010A6F000E01010B6FE2
:10375A001200000E876E000E866E000E836E000E3B
:10376A00846E000E856E070E8C6ECF0E886EF90E73
:10377A00896E7F0E8A6E8B68A70E0F01216F0F016B
:10378A0019690F012669070E0F012E6F0F011169C2
:10379A00000E0F01256F000E0F012D6F000E0F0195
:1037AA00186F000E0F01106F000E0F01206F000E30
:1037BA000F012C6F000E0F010F6F000E0F01176F14
:1037CA00000E0F011F6F000E0F01246F000EF2BED4
:1037DA00010E136EF29E550E0E01A06FAA0E0E0177
:1037EA00A06F0E01A091070E0E01EB6F050E0E01E0
:1037FA00F06F0F0E0E01FA6F060E0E01F16F100E2A
:10380A000E01FB6F080E0E01EC6F0E01B591B58328
:10381A00B585B597B589090E0E01FE6F0E01B78100
:10382A00B783B795B797B7890E01B891B893B8859A
:10383A00B897B889550E0E01A06FAA0E0E01A06F97
:10384A000E01A08113A002D0F28E1200F29E120085
:10385A0029C02DF02E6A2F6A28342D3601E32E80D6
:10386A002D50306E3050D8A407D0000E276E000EAF
:10387A00286E000E296E12002CC02DF02E6A2F6AB7
:10388A002B342D3601E32E802D50356E3550D8A4B9
:10389A0007D0000E276E000E286E000E296E120049
:1038AA0035507B0F302629C035F02C50351A800E42
:1038BA003516288E2B8EFF0E2A16FF0E2B16000E9B
:1038CA002C16000E316E000E326E000E336E070E8D
:1038DA00346E27A006D02A5031262B5032222C5083
:1038EA003322D890293228322732D8902A362B36DA
:1038FA002C36342EEED7090E346E27A006D02A5065
:10390A0031262B5032222C503322D8902932283299
:10391A002732D890333232323132342EEED731C098
:10392A0013F032C014F033C015F030C016F035C0B1
:10393A0017F084EC1DF013C027F014C028F015C04E
:10394A0029F01200570E0001E36F010E0001E46F27
:10395A007CC0E5F07DC0E6F07EC0E7F02AEC14F00A
:10396A00480E0001E36F010E0001E46F79C0E5F033
:10397A007AC0E6F07BC0E7F02AEC14F0390E0001B9
:10398A00E36F010E0001E46F76C0E5F077C0E6F060
:10399A0078C0E7F02AEC14F02A0E0001E36F010E5A
:1039AA000001E46F73C0E5F074C0E6F075C0E7F09B
:1039BA002AEC14F01B0E0001E36F010E0001E46F04
:1039CA0070C0E5F071C0E6F072C0E7F02AEC14F0BE
:1039DA000C0E0001E36F010E0001E46F6DC0E5F00B
:1039EA006EC0E6F06FC0E7F02AEC14F05DC17CF01F
:1039FA005EC17DF05FC17EF04EC179F04FC17AF0B1
:103A0A0050C17BF03FC176F040C177F041C178F0F8
:103A1A0030C173F031C174F032C175F021C170F058
:103A2A0022C171F023C172F012C16DF013C16EF0A0
:103A3A0014C16FF012000001C6AF1DD0C4C0CAF095
:103A4A00C5C0CBF0C6C0CCF00001CA1FCB1FCC1F2B
:103A5A00CA2B000ECB23CC23000E0001CA2500017D
:103A6A00C46F000E0001CB210001C56F800E00015A
:103A7A00CC210001C66F0001C9AF1DD0C7C0CAF072
:103A8A00C8C0CBF0C9C0CCF00001CA1FCB1FCC1FE5
:103A9A00CA2B000ECB23CC23000E0001CA2500013D
:103AAA00C76F000E0001CB210001C86F800E000114
:103ABA00CC210001C96F000E0001C41B000E0001D9
:103ACA00C51B800E0001C61B000E0001C71B000E9D
:103ADA000001C81B800E0001C91B0001C75100016B
:103AEA00C45D0001C8510001C5590001C951000156
:103AFA00C659D8B002D0D8901200D88012001650F9
:103B0A00D8B405D0135014101510D8A40CD0000E38
:103B1A00136E000E146E000E156E1200162AD8903F
:103B2A00153214321332000E1314186E000E1414C8
:103B3A00196EFE0E15141A6E185019101A10D8B4F0
:103B4A000CD0ECD7162A010E1326000E1422000EF2
:103B5A001522D890153214321332000E1314186E2F
:103B6A00000E1414196EFF0E15141A6E185019103F
:103B7A001A10D8B406D0E6D71606D89013361436DB
:103B8A00153614BE03D0020E1660F6D716A0149E80
:103B9A00D8901632165015121750D8A4158E13C085
:103BAA0013F014C014F015C015F012001D6E000EAB
:103BBA001F6E000E1E6E87EC22F01D50FE0B55EC98
:103BCA0022F0155055EC22F0ADEC22F087EC22F0F1
:103BDA001D50010955EC22F0000E1F6E000E1E6EDC
:103BEA0011D01E501624D96E1F501720DA6E71ECB0
:103BFA0022F0DF6E5FEC22F0A7EC22F05FEC22F0FD
:103C0A001E4A1F2AFF0E196EFF0E1A6E18501B6EDF
:103C1A001C6A19501B261A501C221B501E5C1C5071
:103C2A001F58D8A0DED7FF0E196EFF0E1A6E185055
:103C3A001B6E1C6A19501B261A501C221B50162474
:103C4A00D96E1C501720DA6E71EC22F0DF6E5FEC31
:103C5A0022F0ADEC22F012000001B8BF08D0D00E5D
:103C6A000001B75D070E0001B859D8B016D000019F
:103C7A00B74BB82B000E456E000E446E000E436E15
:103C8A00000E426E000E0001B06F000EAF6F000E04
:103C9A000001AE6F000EAD6F03D0010E0001BA6FC6
:103CAA000001B92B750E4424016E010E4520026EE7
:103CBA0072EC21F0750E4224016E010E4320026E51
:103CCA005CEC21F0750E0001AF25016E010E0001BA
:103CDA00B021026EFEEC20F0750E0001AD25016EDA
:103CEA00010E0001AE21026EE5EC20F01200A80ED2
:103CFA00156E240E166E000E176E060E186ED60E70
:103D0A00DBEC1DF02550216E206A2450226E236AB6
:103D1A00205022101B6E215023101C6E60EC20F0E4
:103D2A001BC073F01CC074F01DC075F02750216EC3
:103D3A00206A2650226E236A205022101B6E2150C0
:103D4A0023101C6E60EC20F01BC070F01CC071F0D8
:103D5A001DC072F02950216E206A2850226E236AF3
:103D6A00205022101B6E215023101C6E60EC20F094
:103D7A001BC06DF01CC06EF01DC06FF01200000E6B
:103D8A001E6E1CAE06D01B6C1C1ED8B01C2A010E5F
:103D9A001E6E1AAE06D0196C1A1ED8B01A2A010E57
:103DAA001E1A000E206E000E1F6E1B501C10D8B477
:103DBA001CD0010E1D6E04D0D8901B361C361D2A4D
:103DCA001CAEFAD7D8901F3620361B50195C1C50EF
:103DDA001A58D8A005D01B50195E1C501A5A1F80B9
:103DEA00D8901C321B321D2EEDD71E50D8B404D0E9
:103DFA001F6C201ED8B0202A1FC019F020C01AF04C
:103E0A001200000E1B6E000E1C6E000E1D6E000EC0
:103E1A001E6E1750181019101A10D8B42AD0010E95
:103E2A001F6E06D0D8901736183619361A361F2A3A
:103E3A001AAEF8D7D8901B361C361D361E361750C8
:103E4A00135C18501458195015581A501658D8A0FF
:103E5A0009D01750135E1850145A1950155A1A508F
:103E6A00165A1B80D8901A321932183217321F2E5E
:103E7A00E1D71BC013F01CC014F01DC015F01EC002
:103E8A0016F01200000E186E14AE06D0136C141E33
:103E9A00D8B0142A010E186E16AE04D0156C161E70
:103EAA00D8B0162A15501610D8B418D0010E176EAD
:103EBA0004D0D89015361636172A16AEFAD71550EA
:103ECA00135C16501458D8A004D01550135E16501F
:103EDA00145AD89016321532172EF1D71850D8B472
:103EEA0004D0136C141ED8B0142A13C013F014C0D3
:103EFA0014F012002450251026102710D8B424D00C
:103F0A00010E286E06D0D890243625362636273656
:103F1A00282A27AEF8D72450205C2550215826504D
:103F2A00225827502358D8A008D02450205E255064
:103F3A00215A2650225A2750235AD89027322632FD
:103F4A0025322432282EE7D720C020F021C021F0C4
:103F5A0022C022F023C023F012008E0E236E06D058
:103F6A00D8901E321D321C321B32232A000E1B141B
:103F7A001F6E000E1C14206E000E1D14216EFF0E03
:103F8A001E14226E1F50201021102210D8A4E8D728
:103F9A001BC013F01CC014F01DC015F023C016F08E
:103FAA00000E176E84EC1DF013C01BF014C01CF039
:103FBA0015C01DF012000001D7510001D8110001EF
:103FCA00D911D8B409D0000E0001D71B000E000188
:103FDA00D81B800E0001D91BD4C0C8F0D5C0C9F0C7
:103FEA00D6C0CAF0D7C0CBF0D8C0CCF0D9C0CDF07B
:103FFA00F6EC12F0C8C0D4F0C9C0D5F0CAC0D6F0E9
:10400A001200CDC0C4F0CEC0C5F0CFC0C6F0D0C03B
:10401A00C7F0D1C0C8F0D2C0C9F020EC1DF0000131
:10402A00D8B007D0CDC0CDF0CEC0CEF0CFC0CFF043
:10403A001200D0C0CDF0D1C0CEF0D2C0CFF0120065
:10404A00D0C0C4F0D1C0C5F0D2C0C6F0CDC0C7F050
:10405A00CEC0C8F0CFC0C9F020EC1DF00001D8B026
:10406A0007D0CDC0CDF0CEC0CEF0CFC0CFF0120079
:10407A00D0C0CDF0D1C0CEF0D2C0CFF01200000E29
:10408A00156E000E146E8A96000E156E000E146ED2
:10409A00155010E1280E145CD8B0120085769C0EDB
:1040AA00136ED70EE82EFED7132EFCD700F0144A53
:1040BA00152AEED71200000E1E6E1CAE06D01B6C1F
:1040CA001C1ED8B01C2A010E1E6E1BC013F01CC089
:1040DA0014F0156A8E0E166E1EC017F084EC1DF0D1
:1040EA0013C01BF014C01CF015C01DF01200BB0E4B
:1040FA000001626F000E0001636FBB0E0001606F6A
:10410A00000E0001616F0001648300016491000EDA
:10411A000001666F800E956E280E966E000E986EE0
:10412A00200E936E1200700EBD6E010EBF6E000E51
:10413A00BE6E0A0EC06EE90EBC6E000EBB6E0E019C
:10414A00CE930E01C683620E136E3C0E146E000EE1
:10415A00156E80EC22F0B1EC22F01200818E819C67
:10416A0001EE00F0720EEE6AE806FDE100EE60F084
:10417A00610EEE6AE806FDE100EE39F0130EEE6A12
:10418A00E806FDE14C904C9200013CEF10F0000172
:10419A00C3AF0FD0C1C036F0C2C037F0C3C038F0C9
:1041AA00AEEC21F036C0C1F037C0C2F038C0C3F05F
:1041BA001200C1C0C1F0C2C0C2F0C3C0C3F0120035
:1041CA0001C003F002C004F0D89004320332D89040
:1041DA00043203320350A16E01C003F0030E03162A
:1041EA00060E046ED8900336042EFCD70350A06E38
:1041FA00120001C003F002C004F0D8900432033266
:10420A00D890043203320350A46E01C003F0030EA7
:10421A000316060E046ED8900336042EFCD70350FC
:10422A00A36E1200100ED56E410ED66E150ED46E08
:10423A00A00ED36ED350D4CF13F0146A13C014F067
:10424A00136A13103C6E14503D6E0E01CA9BB3ECF8
:10425A0022F012008DEC22F0AEEC1BF0D2EC21F031
:10426A007CEC20F03FEC22F034EC22F01EEC22F041
:10427A0029EC22F098EC20F017EC21F04AEC22F01D
:10428A001200200E156E370E166E320EF1EC21F06A
:10429A00210E156E000E166E320EF1EC21F0220E72
:1042AA00156E000E166E320EF1EC21F01200FF0EA2
:1042BA000116030E0216A8A80BD0060ED8900136D6
:1042CA000236E82EFBD70250A76E01C0A6FF1200E5
:1042DA000250A76E01C0A6FF1200FF0E0116030EC0
:1042EA000216ACA80BD0060ED89001360236E82E7C
:1042FA00FBD70250AB6E01C0AAFF12000250AB6E90
:10430A0001C0AAFF120021502302F3CF25F0F4CFF7
:10431A0026F021502402F350262622502302F3507D
:10432A00262625C021F026C022F012000E01CE93C7
:10433A0039503A103B10D8B4120001D812000500C7
:10434A00FA6E3950FD6E3A50FE6E3B50FF6EFA50CF
:10435A001200365037103810D8B406D0000E361A6C
:10436A00000E371A800E381A36C036F037C037F0CA
:10437A0038C038F012001BC013F01CC014F0156AC4
:10438A008E0E166E000E176E84EC1DF013C01BF015
:10439A0014C01CF015C01DF01200600E0E01D86F7B
:1043AA00000E0E01DA6F000E0E01DC6F070E0E0111
:1043BA00DE6F000E0E01DD6F1200200E156EAF0EBD
:1043CA00166ED60EF1EC21F0230E156E100E166E37
:1043DA00D60EF1EC21F01200176E87EC22F017507E
:1043EA0055EC22F0155055EC22F0165055EC22F0FF
:1043FA00ADEC22F01200156E000E146E3A0E156026
:10440A0005D02F0E156402D0010E146E14C013F0DD
:10441A0013301200D3CF19F0D4CF1AF01A50156EF8
:10442A001950176E15C018F017C013F018C014F001
:10443A001200800EA26E5D0EA16E400EA06EAE50EE
:10444A003F0B4009AE6E1200800EA56E5D0EA46E83
:10445A00400EA36EAE50CF0B1009AE6E12009C0E2A
:10446A00A86E5D0EA76E400EA66EAE50F30B040941
:10447A00AE6E12009C0EAC6E5D0EAB6E400EAA6E56
:10448A00AE50FC0B0109AE6E1200080E9F6E900E24
:10449A009D6E240E9E6E670E9B6E000E9C6E120021
:1044AA00146E5FEC22F014C092FF95B0FED75FEC59
:1044BA0022F0120097CF13F01F0E1316D8A4FAD7C2
:1044CA0095A41200F7D70E01CDABFDD79DA202D05D
:1044DA009D9E9D8E99501200978695A0FED7959025
:1044EA000E01CD9192501200136E0E01CDA9FDD787
:1044FA0013C09AFF120013C039F014C03AF015C065
:10450A003BF012005FEC22F097805FEC22F0120081
:10451A00F28A0E01BE830E01BD83120046EC21F021
:10452A00E2EC21F0120004EC1AF07CEC1EF012000E
:10453A00146E145079EC22F012001450D46E13C089
:10454A00D3FF1200979A97881200F28EF28C12000B
:10455A0097841200D59E1200BD8E1200D58E1200CD
:04456A001200120029
:020000040020DA
:10000000FF0FFF0FFF0FFF0FFF0FFF0FFF0FFF0F80
:020000040030CA
:0C0000008CFFFFFF9FFFFFFFFFFFFFFFD3
:00000001FF
